:020000040800F2
:100000007884002081020008996B0008555C000884
:100010001D690008550C0008B9A500080000000083
:10002000000000000000000000000000C101000806
:10003000850F0008000000001D020008798E0008EE
:100040009B0200089B0200089B0200089B0200081C
:100050009B0200089B0200089B0200089B0200080C
:100060009B0200089B0200089B0200089B020008FC
:10007000C50C0008D50C0008E50C0008F50C0008BC
:100080009B020008050D00089B0200089B02000867
:10009000590C00089B0200089B0200089B02000804
:1000A0009B0200089B0200089B0200089B020008BC
:1000B000C58F00089B0200089B0200089B020008F5
:1000C0009B0200089B0200089B0200089B0200089C
:1000D0009B02000895A300089B020008A9A3000842
:1000E0009B0200089B0200089B0200089B0200087C
:1000F0009B0200089B0200089B0200089B0200086C
:100100009B02000899750008D58F00089B02000823
:10011000AD9C00089B0200089B0200089B0200089F
:100120009B020008150D0008250D0008350D00087C
:100130009B0200089B0200089B0200089B0200082B
:100140009B0200089B0200089B0200089B0200081B
:100150009B020008450D0008550D0008BDA30008CE
:100160009B0200089B0200089B0200089B020008FB
:100170009B0200089B0200089B0200080000000090
:100180009B0200089B020008BD9C0008CD9C000853
:100190009B0200089B0200089B0200089B020008CB
:1001A00000000000000000009B020008DFF80CD0F7
:1001B00000F076FC004800477100010878840020B8
:1001C0002C4B19680868B0E8F04F80F30988BFF33A
:1001D0006F8F4FF0000080F311887047000000001F
:1001E00008480068006880F308884FF0000080F33A
:1001F000148862B661B6BFF34F8FBFF36F8F00DF15
:1002000000BF00BF08ED00E0DFF80C00016841F41A
:1002100070010160704700BF88ED00E0EFF30980D6
:10022000BFF36F8F134B1A681EF0100F08BF20ED3D
:10023000108A20E9F04F106009B44FF0500080F3AD
:100240001188BFF34F8FBFF36F8F11F0CBFE4FF0CC
:10025000000080F3118809BC19680868B0E8F04F05
:100260001EF0100F08BFB0EC108A80F30988BFF3AE
:100270006F8F7047DC010020EFF3058070470000AE
:100280000648804706480047FEE7FEE7FEE7FEE730
:10029000FEE7FEE7FEE7FEE7FEE7FEE7618F000808
:1002A000AD01000801804280436070472DE9F04FA6
:1002B0000288D0F80480B0F802904888D1F804E0B1
:1002C00083B04FF0000A1746824207BF098889456C
:1002D0006FF0020003B018BFBDE8F08F4FEA990B32
:1002E00002EB42000290C9F3400001900EEB8A013C
:1002F000BBF1000F2FD0029801EB820C01EB8004C0
:10030000434601EBC205CDF800C0584653F8046BD4
:100310000E6053F8046BCCF8006053F8086B2E6045
:1003200053F8046C266001EB02110CEB021C05EB88
:10033000021504EB0214401EE8D1009808EB0B18DC
:1003400000EB820000EB820000EB8201ABF10100C8
:10035000504301EB001119F0030C19D0A8F104036C
:10036000A1EB82011CF0010F04D001EB820153F8D4
:10037000040F0860019848B15C6841F8224001EB25
:10038000C20153F8084F0C60401EF5D108EB8C08F1
:100390000AF101001FFA80FA781E07043F0CA5D16C
:1003A00003B00020BDE8F08F2DE9F05F0546002086
:1003B00092469B4688460646814640241BE02846D6
:1003C00041464746224600F04CFA53465A46C01A68
:1003D000914110D311461846224600F033FA2D1AE7
:1003E00067EB01084F4622460120002100F02AFA5F
:1003F00017EB00094E41201EA4F10104DFDC484642
:1004000031462A464346BDE8F09F40EA01039B0778
:1004100003D009E008C9121F08C0042AFAD203E079
:1004200011F8013B00F8013B521EF9D27047D2B2DD
:1004300001E000F8012B491EFBD270470022F6E7CD
:1004400010B513460A4604461946FFF7F0FF20464A
:1004500010BD2DE9FE4F804681EA0300C00F0C4617
:10046000009021F0004123F00045B8EB0200A941C3
:1004700005D24046214690461C460B46024623F0D4
:100480000040104347D0270DC7F30A00C3F30A51B9
:100490000290401A019040286BDAC3F3130040F435
:1004A000801B0098924620B10023D2EB030A63EB35
:1004B0000B0B01985946C0F14002504600F0C2F9BA
:1004C00006460D4650465946019A00F0DAF910EBFF
:1004D00008006141002487EA115284EAE7731A4355
:1004E00040D0009A62B3019A012A4FEA075215DC04
:1004F000001B61EB02014FF0004202EA0752CDE916
:100500000042001C41F5801132462B4600F011FAE2
:1005100003B0BDE8F08F40462146F9E7001B61EBD0
:100520000201001C41F5801300185B412018A2F560
:10053000001747EB030140EAD570B6196D4111E091
:100540006D084FEA360645EAC0754FEA0752001BB0
:1005500061EB0201001C41F5801149084FEA3000AF
:100560000019514132462B4603B0BDE8F04F00F070
:10057000D1B90098012240000023D0EB020263EBC6
:10058000E073009821464FEAE074B8EB000061EB9D
:100590000401E9E783F000435BE781F0004158E79D
:1005A0002DE9FE4F81EA030404F0004421F00041EC
:1005B00000944FF0000B23F0004350EA01045ED09A
:1005C00052EA03045BD0C3F30A54C1F30A552C4426
:1005D000A4F2F3340194A0FB0254C1F3130141F4DB
:1005E0008011C3F3130343F4801301FB024400FBA7
:1005F000034E840A970A44EA815447EA8357A4FBCE
:10060000076802958D0A05FB07854FEA932C04FBCA
:100610000C542705029D4FEA065847EA1637B5EBFA
:1006200008056EEB070C870E920E47EA811742EA27
:100630008312A7FB0201B6EB0B0164EB00042B0D48
:1006400043EA0C335E1844EB1C50DA465146E7FB94
:100650000201C5F313044FEA0B3343EA14534FEA84
:100660000432019C43EA0603A4F10C040294009CAA
:10067000CDE900B400F05DF903B0BDE8F08F0020D3
:100680000146F9E72DE9F04D81EA030404F0004B3F
:1006900021F0004514464FF0000A23F0004150EAD3
:1006A000050220D054EA01021DD0C5F30A570246C4
:1006B000C5F31303C1F31300C1F30A5640F48015C8
:1006C00043F48013A7EB0608101BD64608F2FD384A
:1006D00073EB050002D308F1010801E092185B41B9
:1006E000B8F1000F03DA00200146BDE8F08D0020CC
:1006F0004FF48011064684460EE0171B73EB050786
:1007000005D3121B63EB050306434CEA010C4908B1
:100710004FEA300092185B4150EA0107EDD152EAEE
:10072000030012D082EA040083EA0501084305D0E1
:10073000101BAB4106D20122002306E000224FF03D
:10074000004302E06FF0010253101AEB06004CEB7D
:10075000085110EB0A0041EB0B01BDE8F04D00F031
:10076000D9B80EB5C10F80EAE0700844CA0700216D
:1007700040F233438DE80E000A460B4600F0D9F8EC
:1007800003B000BD00F0004230F000400AD0C10DBF
:1007900001F56071C0F3160042EA0151C20840073A
:1007A00011437047002001467047000030B5041E19
:1007B00071F1000404DB4FF00044404264EB01019E
:1007C000141E73F1000405DB1C464FF00043524237
:1007D00063EB04038B4208BF824230BD30B5041E78
:1007E00071F1000404DB4FF00044404264EB01016E
:1007F000141E73F1000405DB1C464FF00043524207
:1008000063EB0403994208BF904230BD01F00043FE
:1008100030B421F0004150EA010206D00A0DA2F5E1
:100820006072C1F31301002A02DC30BC0020704763
:10083000440F44EAC104C100E01830BC00EBC250D0
:1008400000F031B8202A04DB203A00FA02F100203F
:1008500070479140C2F1200320FA03F319439040FE
:100860007047202A04DB203A21FA02F00021704769
:1008700021FA02F3D040C2F1200291400843194608
:100880007047202A06DBCB17203A41FA02F043EAF0
:10089000E07306E041FA02F3D040C2F12002914039
:1008A0000843194670470029A8BF7047401C4900FB
:1008B00008BF20F00100704710B4B0FA80FC00FAC5
:1008C0000CF050EA010404BF10BC704749B1CCF1F0
:1008D000200421FA04F411FA0CF118BF012121437C
:1008E0000843A3EB0C01CB1D4FEA00614FEA102037
:1008F00042BF002010BC704700EBC35010440029D9
:10090000A4BF10BC7047401C490008BF20F0010084
:1009100010BC704710B5141E73F1000408DA401CB7
:1009200041F1000192185B411A4301D120F001000E
:1009300010BD2DE9F04D92469B4611B1B1FA81F2FE
:1009400002E0B0FA80F220329046FFF77BFF0446C7
:100950000F4640EA0A0041EA0B0153465A46084353
:1009600013D0114653EA010019D0C8F14002504695
:10097000FFF777FF05460E46504659464246FFF7B9
:1009800061FF084305D0012004E020463946BDE858
:10099000F08D0020054346EAE0762C4337430A9861
:1009A0006305E40AA0EB08000022FD0A44EA47546C
:1009B0000A3002D500200146E9E701051019694116
:1009C000DDE9084500196941BDE8F04DA2E770B5C1
:1009D00021F0004303430CD0C1F30A550024D5EBAA
:1009E000040564EB0403D617AD1AB34102DB002003
:1009F000014670BD201841EB025170BD2DE9F04D4C
:100A000000231A461B1A8A4103DB00200146BDE879
:100A1000F08DC1F30A52C1F3130141F480154FF078
:100A2000000BD10702D100186D41521E0027044669
:100A300040F2FF11384601EB620A3E46804602460C
:100A400000204FF48011FFF70CFFC2197141BB1851
:100A500046EB0100B4EB030C75EB000C04D3E41A75
:100A600065EB000517460E46241908F101006D419B
:100A700080463428E3DDF91946EB0600091BA8413E
:100A800003D24FF0FF32134601E0002213461BEB66
:100A9000070046EB0A51BDE8F04DFFF73BBF0000F1
:100AA000064C074D06E0E06840F0010394E80700BB
:100AB00098471034AC42F6D3FFF77CFB64EA030896
:100AC00084EA030870B58C1810F8015B15F0070371
:100AD00001D110F8013B2A1106D110F8012B03E0D7
:100AE00010F8016B01F8016B5B1EF9D12B0705D4DF
:100AF0000023521E0DD401F8013BFAE710F8013B28
:100B0000CB1A921C03E013F8015B01F8015B521E43
:100B1000F9D5A142D8D3002070BD000070B50546BC
:100B20000C4600260DB1022C00D870BDA11E06484F
:100B30000288284600F026FE0646A01E2E54310AE2
:100B4000601E295400BFF0E70E00002070B5054676
:100B50000C4600260DB1022C00D870BD611EFF228C
:100B6000284600F029FE0646601E2E5400BFF4E71A
:100B70007047000010B504462146024803F098FA79
:100B800010BD0000CC1B002010B5044803F0A3FAF0
:100B9000042801D0012010BD0020FCE7CC1B002060
:100BA00010B5002400F014F8012801D0012010BD78
:100BB000064803F0B1FB044634B94FF40061034822
:100BC00003F03CF900B101242046F0E7CC1B0020E3
:100BD00008B5012000909DF8000008BD2DE9F04106
:100BE00004460D461646002733462A462146044849
:100BF00003F0B8FC00B101273846BDE8F0810000E1
:100C0000CC1B002010B500220121024800680FF023
:100C100091FD10BDBC0100202DE9F04104460D46B8
:100C20001646002733462A462146044803F04EFD67
:100C300000B101273846BDE8F0810000CC1B002040
:100C400010B500220221024800680FF073FD10BDAC
:100C5000BC01002000BFFEE710B5024801F048FDCE
:100C600010BD00003413002070B58AB00646002481
:100C70000025059400200690012007900020009098
:100C80000190029003900495012008900E20099095
:100C90006946064801F0DCFB044802F086F80221B0
:100CA000024801F015FB0AB070BD000034130020AB
:100CB0000146412902DBA1F137007047A1F1300064
:100CC000FBE7000010B5024802F0FAF810BD000082
:100CD0002821002010B5024802F0F2F810BD0000F3
:100CE000A81F002010B5024802F0EAF810BD00006D
:100CF0000820002010B5024802F0E2F810BD000004
:100D00008821002010B5024802F0DAF810BD00007A
:100D10006820002010B5024802F0D2F810BD000093
:100D2000E821002010B5024802F0CAF810BD00000A
:100D3000C820002010B5024802F0C2F810BD000023
:100D4000B01C002010B5024802F0BAF810BD000037
:100D5000501C002010B5024802F0B2F810BD00008F
:100D60004822002038B5044631480068406940F008
:100D700040002F490968486119202D4A00901268E7
:100D8000111D2B4A2B4B506BA3F1190202F043F8B3
:100D900027480068C06840F0100025490968C8600D
:100DA00082222549254804F035FE24480068C068A1
:100DB00040F0100021490968C86021480068406976
:100DC00040F040001E49096848611D4A1268111D23
:100DD0001B4A1523506B1B4A02F008FA184800689A
:100DE000C06840F0100016490968C86016480068DD
:100DF000406940F040001449096848614F20124A98
:100E000000901268111D104A104B506BA3F14F0255
:100E100002F001F80C480068C06840F010000A4970
:100E20000968C86013220A490A4804F0F3FD38BD76
:100E3000E81E0020990A00200C050020281F002031
:100E4000681F0020300A0020A81E0020A7030020F1
:100E500010130020281E002001460878103818239F
:100E6000B0FBF3F20848805CC865032A05D908681E
:100E70006FF30900001D886503E008686FF309003F
:100E80008865886D70470000CC3C01080146002051
:100E90008A6A8B69CBB932B1012A0DD0022A03D0FC
:100EA000032A10D10EE000BFCB6A03F08073B3F1C8
:100EB000807F00D1012007E0CB6AB3F1C07F00D171
:100EC000012001E000E000BF34E08B69B3F5005F72
:100ED0001AD132B1012A07D0022A03D0032A11D134
:100EE0000AE000BF01200EE0CB6A03F08073B3F18B
:100EF000807F00D1012006E0CB6AB3F1C07F00D132
:100F0000012000E000BF15E032B1012A05D0022A1D
:100F100004D0032A0CD103E000BF00BF012008E089
:100F2000CB6A03F08073B3F1807F00D1012000E031
:100F300000BF00BF704710B5046863608468402C30
:100F400004D10468A2600468E16003E00468A16061
:100F50000468E26010BD30B50468246824F480247D
:100F600005682C60046863608468402C04D10468C0
:100F7000A2600468E16003E00468A1600468E260C4
:100F800030BD70477047704730B504460D460022AB
:100F90002946204600F002F830BD0000F0B50346B7
:100FA000012500241148407A01281CDA00200F4E48
:100FB000767A0E4FB8553846467A001D40F82630EE
:100FC000001F467A083082553E46707A461C7E7273
:100FD000044604F1300008703A2048702F208870D1
:100FE0000020C87000252846F0BD0000687400206D
:100FF00000B587B0FE48007801287CD1FDA006909E
:10100000022106220C230698CDE9023204910190B8
:1010100040F295104FF470734FF407721946009028
:1010200001200BF063FFF4A00690022106220C239E
:101030000698CDE902320491019040F2951040F2F9
:101040002943024640F25731009001200BF04EFF39
:10105000EAA00690072105220C230698CDE902326A
:101060000491019040F27A3040F20E634FF44D72D9
:1010700040F28251009001200CF012F8E0A006909E
:10108000E0480078082107220A23CDE90132CDE9A2
:101090000310012000904FF44D7240F28251069BE4
:1010A00011F0D8F9D8A00690072105220C23069844
:1010B000CDE902320491019040F2BD1040F28C5310
:1010C00040F277124FF4A061009001200BF0E8FF8E
:1010D000CEA00690CB484078082107220A23CDE90C
:1010E0000132CDE903100120009040F277124FF455
:1010F000A061069B00E0DEE111F0ACF910F088F988
:10110000C3A00690072105220C230698CDE90232E0
:101110000491019040F2771040F28C5340F231126A
:101120004FF4A061009001200BF0BAFFB9A0069027
:10113000B9480088082107220A23CDE90132CDE908
:101140000310012000901E224FF4A061069B11F0B5
:1011500081F9AFA00690062107220A230698CDE95F
:1011600002320491019040F2591040F2622340F2A1
:101170004F121946009001200BF0B8FEA7A0069070
:10118000012107220A230698CDE902320491019039
:1011900040F2591040F2564340F24F121946009067
:1011A00001200BF0A3FE10F033F900F015FC9CA019
:1011B0000690072105220C230698CDE902320491FE
:1011C000019040F27B204FF4E16340F2352240F27F
:1011D0007C61009001200BF063FF92A00690082034
:1011E000914909680723CDE90230CDE904100A20AE
:1011F0000121CDE9001040F2352240F27C6101204E
:10120000069B10F07DFF89A00690072105220C2384
:101210000698CDE902320491019040F235204FF456
:10122000E16340F2EF1240F27C61009001200BF08C
:1012300037FF7FA0069008207E4909680723CDE983
:101240000230CDE904100A200121CDE9001040F25E
:10125000EF1240F27C610120069B10F051FF73A059
:101260000690072105220C230698CDE9023204914D
:10127000019040F2EF104FF4E16340F2A9124FF4F5
:10128000BE61009001200BF00BFF69A006900E20BC
:101290006949096808220723CDE90232CDE9041023
:1012A0000A200121CDE9001040F2A9124FF4BE61DD
:1012B0000120069B10F024FF60A006900721052264
:1012C0000C230698CDE902320491019040F27F3060
:1012D00040F28B1340F23932FF21009001200BF0D5
:1012E000DFFE57A006905748006800EE100ABCEEDB
:1012F000C00A082007210222CDE9022104908DEDC9
:10130000050A0A200121CDE9001040F23932FF21FF
:101310000120069B10F0C0FF48A00690072105227F
:101320000C230698CDE902320491019040F27F30FF
:1013300040F2172340F2393240F28B110090012025
:101340000BF0AEFE3EA006903E48406800EE100A4C
:10135000BCEEC00A082007210222CDE90221049038
:101360008DED050A0A200121CDE9001040F2393245
:1013700040F28B110120069B10F08EFF10F048F810
:1013800031A00690072105220C230698CDE90232F0
:101390000491019040F2393040F28B1340F2F32275
:1013A000FF21009001200BF07BFE28A0069028482A
:1013B00090ED050ABCEEC00A082007210222CDE903
:1013C000022104908DED050A0A200121CDE90010CB
:1013D00040F2F322FF210120069B10F05DFF1DA0CB
:1013E0000690072105220C230698CDE9023233E04E
:1013F00049010020617076006170680065706200CC
:10140000657076007D000020617462006174760072
:10141000627262006272760086000020627362006F
:1014200061736200617376004001002066736200A0
:10143000667376003C01002044010020786362005E
:101440007863760066060020706162007061760045
:10145000F40A0020796162000491019040F2393071
:1014600040F2172340F2F32240F28B11009001204A
:101470000BF016FEB7A00690B74890ED050ABCEE3B
:10148000C00A082007210222CDE9022104908DED37
:10149000050A0A200121CDE9001040F2F32240F2B2
:1014A0008B110120069B10F0F7FE0FF0B1FF00201A
:1014B000AA49087040E1AFF2B8000690A848007849
:1014C000082107220A23CDE90132CDE903100120CA
:1014D00000904FF44D7240F282510220069B10F0B2
:1014E000B9FFAFF2D80006909D4840780821072246
:1014F0000A23CDE90132CDE903100120009040F22A
:1015000077124FF4A0610220069B10F0A3FFAFF208
:10151000FC00069093480088082107220A23CDE9A1
:101520000132CDE90310012000901E224FF4A0618A
:101530000220069B10F08EFFAFF22C1006908A4816
:1015400000684FF4FA71B1FBF0F08649098848430E
:1015500000F26220062107220A2305900698CDE9B1
:1015600002320491019040F25910009040F24F1263
:1015700040F262210120059B0BF0B8FCAFF2641031
:101580000690794800684FF4FA71B1FBF0F07549A4
:10159000098840F2564200FB1120012107220A234C
:1015A00005900698CDE902320491019040F259105D
:1015B00040F2564340F24F120090012005990BF083
:1015C00095FC0FF025FF00F007FAAFF2A810069087
:1015D0000820664909680723CDE90230CDE90410E7
:1015E0000A200121CDE9001040F2352240F27C6151
:1015F0000220069B10F084FDAFF2CC10069008206C
:101600005B4909680723CDE90230CDE904100A20BF
:101610000121CDE9001040F2EF1240F27C6102207E
:10162000069B10F06DFDAFF2F81006900E205149A8
:10163000096808220723CDE90232CDE904100A2007
:101640000121CDE9001040F2A9124FF4BE61022041
:10165000069B10F055FDAFF2182006904648006832
:1016600000EE100ABCEEC00A082007210222CDE9D4
:10167000022104908DED050A0A200121CDE9001018
:1016800040F23932FF210220069B10F005FEAFF236
:10169000502006903848406800EE100ABCEEC00AA0
:1016A000082007210222CDE9022104908DED050AD0
:1016B0000A200121CDE9001040F2393240F28B11AD
:1016C0000220069B10F0E8FDAFF2802006902B4828
:1016D00090ED050ABCEEC00A082007210222CDE9E0
:1016E000022104908DED050A0A200121CDE90010A8
:1016F00040F2F322FF210220069B10F0CDFD15A041
:101700000690154890ED050ABCEEC00A0820072196
:101710000222CDE9022104908DED050A0A20012163
:10172000CDE9001040F2F32240F28B110220069B1B
:1017300010F0B2FD0FF06CFE1148408810B1104857
:10174000808828B904F088FA10B9002007B000BDDD
:101750000120FBE779617600680B00204901002039
:101760007D000020860000208C0000204001002029
:101770003C0100204401002066060020F40A0020FD
:101780006000002030B5034613B94FF6FF7030BD3E
:1017900009E013F8014B82EA0400C0B2054D35F8A8
:1017A000100080EA2222081EA1F10101F1D11046A9
:1017B000EDE700008C3A010830B5034605E013F868
:1017C000010B80EA02040448025D081EA1F1010138
:1017D000F5D1104630BD00008B390108024631B109
:1017E000012915D0022924D0032944D132E093885D
:1017F000A3F58060002801DB034600E043420A2B8A
:1018000001DA002070479088A0F5806000B2F9E707
:10181000D388A3F58060002801DB034600E0434243
:101820000A2B01DA0020EDE7D088A0F5806000B235
:10183000E8E71389A3F58060002801DB034600E098
:1018400043420A2B01DA0020DCE71089A0F5806012
:1018500000B2D7E75389A3F58060002801DB034677
:1018600000E043420A2B01DA0020CBE75089A0F5C3
:10187000806000B2C6E74FF48060C3E702461029DB
:101880006FD2DFE801F008101820283038404850A7
:10189000586068717981907D00F0010008B10120E5
:1018A00070470020FCE7907D00F0020008B10120A5
:1018B000F6E70020F4E7907D00F0040008B1012075
:1018C000EEE70020ECE7907D00F0080008B1012071
:1018D000E6E70020E4E7907D00F0100008B1012069
:1018E000DEE70020DCE7907D00F0200008B1012059
:1018F000D6E70020D4E7907D00F0400008B1012039
:10190000CEE70020CCE7907D00F0800008B10120F8
:10191000C6E70020C4E7D08A00F4807008B1012037
:10192000BEE70020BCE7D08A00F4007008B10120B7
:10193000B6E70020B4E7D08A00F4806008B1012047
:10194000AEE70020ACE7D08A00F4006008B10120C7
:10195000A6E70020A4E7D08A00F4805010B101204F
:101960009EE719E000209BE7D08A00F4005008B100
:10197000012095E7002093E7D08A00F4804008B169
:1019800001208DE700208BE7D08A00F4004008B1E9
:10199000012085E7002083E7002081E70246032934
:1019A00002D0042904D101E0107D7047507DFCE78E
:1019B0000020FAE7024621B1012905D0022909D108
:1019C00005E0B2F90E007047B2F91000FBE7B2F97A
:1019D0001200F8E70020F6E7204890F82C000128D4
:1019E0001BD0022804D0032809D004281CD10DE004
:1019F0001BA01F4908601FA0214908601BE021A00F
:101A00001B49086023A01E49086014E024A018495F
:101A1000086020A01A4908600DE011A01449086070
:101A20001CA01749086006E021A01149086019A010
:101A30001349086000BF00BF084890F8280028B18B
:101A4000012807D11EA02149086004E020A01F49F9
:101A5000086000E000BF00BF01207047DC0B0020E1
:101A600061747461636B3A204672656520200000E2
:101A7000440100206175746F3A204F4E0000000051
:101A80004001002061747461636B3A4F7574706F2C
:101A9000737400006175746F3A4F46460000000091
:101AA00061747461636B3A204261736520200000A9
:101AB00061747461636B3A204E756C6C2020000079
:101AC000467269633A204F4E000000003C0100203E
:101AD000467269633A4F464600000000024611B163
:101AE000012904D101E0507B7047107BFCE7032003
:101AF000FAE7000010B52DED0A8BC24800680128F6
:101B000016D1C14890ED010AC04880ED060A00F0E8
:101B100059FB032802D10020BA4908600020B949C6
:101B20000860BB4805F03AF8B84805F037F85BE1C3
:101B3000B54890F82B0001287ED10321B548FFF766
:101B40004DFE0446FEF70DFE41EC1C0B9FEDB20B63
:101B500053EC102BFEF724FD41EC1B0B9FEDB00B5B
:101B600053EC102BFEF78EFD41EC190BA84890EDBD
:101B7000060A10EE101A0846FEF704FE41EC1A0B96
:101B800053EC192BFEF765FC41EC180BFEF73EFEFB
:101B90009F49886100219F48FFF720FE0446FEF719
:101BA000E0FD41EC1C0B9FEDA00B53EC102BFEF75E
:101BB000F7FC41EC1B0B9FED9A0B53EC102BFEF73F
:101BC00061FD41EC190B914890ED060A10EE101AD8
:101BD0000846FEF7D7FD41EC1A0B53EC192BFEF724
:101BE00038FC41EC180BFEF711FE884988618848E3
:101BF00090ED060AF2EE0E0AB4EEE00AF1EE10FAEB
:101C000004DDB2EE0E0A80ED060A0DE0804890ED8C
:101C1000060ADFED870AB4EEE00AF1EE10FA03D20D
:101C20009FED830A80ED060A784890ED060ADFED05
:101C3000810AB4EEE00A00E01CE0F1EE10FA04DDE7
:101C40009FED7C0A80ED060A0DE0704890ED060AD3
:101C5000DFED790AB4EEE00AF1EE10FA03D29FED5F
:101C6000760A80ED060A6A4804F098FF674804F097
:101C700095FFB9E0644890F82B0002287DD16248B6
:101C800090F82C00012822D100216248FFF792FE33
:101C900000EE100AF8EEC00A5C4890ED060A9FEDCF
:101CA000671A01EE200A80ED060A01215948FFF764
:101CB00081FE00EE100AF8EEC00A554890ED060AC3
:101CC0009FED5E1A01EE600A80ED060A30E04E4894
:101CD00090F82C0002280CD1594890ED000A4B488E
:101CE00080ED060A574890ED000A494880ED060A43
:101CF0001EE0454890F82C0003280AD19FED520AB7
:101D0000424880ED060ABBEE030A414880ED060A10
:101D10000EE03D4890F82C00042809D19FED4B0AB5
:101D20003A4880ED060A9FED480A394880ED060AD8
:101D3000374890ED060AF2EE0E0AB4EEE00AF1EE34
:101D400010FA04DDB2EE0E0A80ED060A0DE030480E
:101D500090ED060ADFED360AB4EEE00AF1EE10FA75
:101D600003D29FED330A80ED060A284890ED060A5B
:101D7000DFED300AB4EEE00A00E01CE0F1EE10FA0C
:101D800004DD9FED2C0A80ED060A0DE01F4890ED62
:101D9000060ADFED290AB4EEE00AF1EE10FA03D2EA
:101DA0009FED250A80ED060A194804F0F7FE174852
:101DB00004F0F4FE18E0144890F82B00A0B9124883
:101DC00090ED000A124880ED060A9FED1F0A80ED93
:101DD000100A0D4890ED010A0C4880ED060A00201B
:101DE0000B49C8840949C8840948C08C404200B2E4
:101DF0000749C8840549064804F0F4FDBDEC0A8B88
:101E000010BD00001C010020DC0B0020680B00202E
:101E1000F40A0020500A00209A9999999999C93F8B
:101E20000000000000A08440000000000000D03F3F
:101E3000000070C200001B4300001BC30AD7233CF4
:101E4000AC000020A80000200000000000001042AC
:101E500000207149087048700120887000200871C6
:101E600000216D48C18040F207206B4988609FEDDA
:101E70006B0A084680ED030A9FED680A80ED040AAC
:101E80009FED660A80ED050A9FED640A80ED060A63
:101E90000020C88308844884C88447F24810088515
:101EA0009FED5F0A084680ED0B0A9FED5E0A80ED0C
:101EB0000C0A9FED5A0A80ED0D0A9FED580A80ED3D
:101EC000120A9FED590A80ED110A9FED540A80ED28
:101ED0000E0A9FED520A80ED0F0A9FED500A80ED29
:101EE000100A9FED4E0A80ED130AB3EE0B0A80ED47
:101EF000140A9FED4A0A80ED150AB6EE000A80ED3D
:101F0000160A9FED460A80ED1B0A9FED480A80EDF8
:101F10001A0A9FED420A80ED170A9FED400A80EDF4
:101F2000180A9FED3E0A80ED190A9FED3C0A80EDEC
:101F30001C0A00203E49087048700120887000206B
:101F4000087100213A48C1804FF402703849886016
:101F50009FED320A084680ED030A9FED300A80EDBE
:101F6000040A9FED2E0A80ED050A9FED2C0A80EDF4
:101F7000060A0020C88308844884C88444F6206088
:101F800008859FED2C0A084680ED0B0A9FED2A0A72
:101F900080ED0C0A9FED210A80ED0D0A9FED1F0ACE
:101FA00080ED120A9FED200A80ED110A9FED1B0AB9
:101FB00080ED0E0A9FED190A80ED0F0A9FED170ABA
:101FC00080ED100A9FED150A80ED130AB3EE0E0A9C
:101FD00080ED140A9FED110A80ED150A9FED170A96
:101FE00080ED160A9FED0D0A80ED1B0A9FED0F0A8A
:101FF00080ED1A0A9FED090A80ED170A9FED070A86
:1020000080ED180A9FED050A80ED190A9FED030A7D
:1020100080ED1C0A70470000F40A00200000000058
:10202000000002439A99993E00409C4500401C469E
:10203000680B002000000C43CDCCCC3ECDCCCC3D79
:102040009FED351AB0EE410A9FED331AF0EE410ACA
:102050003248C08B41F66221081A01EE100AB8EE30
:10206000C11ADFED2F1A21EE211A2E4880ED001A39
:102070002D4890ED0B1AB0EE410A90ED0A1A29484E
:1020800080ED021A2948C08B41F6905188420FDA40
:102090002648C08BA0F5596001EE100AB8EEC11AAF
:1020A000DFED1F1A21EE211A1E4880ED011A0FE004
:1020B0001E48C08BA0F534508F3801EE100AB8EEE0
:1020C000C11ADFED171A21EE211A164880ED011A08
:1020D000154890ED0C1AF0EE410A90ED051ADFED6F
:1020E000141A21EE211A0F4880ED031A0E4890EDC4
:1020F000061ADFED101A21EE211A0A4880ED041AA3
:10210000094890ED041ADFED0A1A21EE211A05485C
:1021100080ED051A7047000000000000F40A00205E
:102120005839343DDC0B0020A4020020680B00204D
:1021300033336542333365C21C480068012812D12D
:102140001B4890ED000A1B4880ED060A9FED1A0A15
:1021500080ED100A164890ED010A184880ED060A35
:10216000002012490860124890ED000A114880EDE5
:10217000050A0F4890ED030A0E4880ED030A0C484B
:1021800090ED010A0D4880ED050A094890ED040A1A
:102190000A4880ED030A0A48006805498861084832
:1021A0004068C861064880680862704718010020CE
:1021B000DC0B0020F40A002000000000680B002067
:1021C000660600203E4890ED050AF2EE020AB4EEE3
:1021D000E00AF1EE10FA17D23A480078A0B9384870
:1021E00090ED060AF2EE040AB4EEE00AF1EE10FAFF
:1021F00007D290ED060ADFED340A30EE200A80EDBA
:10220000060A3048007870472E48007810B901203F
:102210002C4908702A4890ED050AFBEE0D0AB4EE31
:10222000E00AF1EE10FA18DD26480078012814D1F2
:10223000234890ED060AFBEE0E0AB4EEE00AF1EE3A
:1022400010FA07DD90ED060ADFED200A30EE600A95
:1022500080ED060A1B480078D5E71A480078012867
:1022600002D1022017490870154890ED050AFFEECB
:10227000000AB4EEE00AF1EE10FA16D21148007826
:10228000022812D10E4890ED060AB5EEC00AF1EE12
:1022900010FA07D290ED060ADFED0C0A30EE200AA4
:1022A00080ED060A07480078ADE706480078022866
:1022B00002D103200349087002480078A3E7000018
:1022C000F40A0020200100200AD7233D0AD7A33DAD
:1022D00010B5024692F82030012B01D0022B06D116
:1022E00010684069084314686061002010BD506A9E
:1022F00040F4802050620120F8E7F0B504460D4616
:102300001E4694F8207020688368A86800B900E031
:1023100000BF012F01D0022F7CD103F0806030B9C3
:1023200003F0006018B903F08050002873D0C3F3A5
:102330000161022905D9606A40F400006062012051
:10234000F0BD012088403060A86860B9B5F800C0D1
:10235000E86840EA4C5C206800F5C07000EB0110B2
:10236000C0F800C00FE0D5E901C040EACC00D5F8C4
:102370000CC040EA0C00D4F800C00CF5C07C0CEB9B
:10238000011CCCF80000D5F810C0206800F5C07022
:1023900000EB0110C0F804C0287D01280ED1206890
:1023A00000F5C07000EB0110406840F4807C2068AC
:1023B00000F5C07000EB0110C0F804C0D079000631
:1023C00092F806C040EA0C4092F805C040EA0C2C96
:1023D00010794CEA000C206800F5C07000EB011089
:1023E000C0F80CC0D078000692F802C040EA0C4059
:1023F00092F801C040EA0C2092F800C040EA0C00BC
:10240000D4F800C00CF5C07C0CEB011CCCF8080023
:10241000206801E016E00FE000F5C07000EB01104D
:10242000006840F0010C206800F5C07000EB01105E
:10243000C0F800C0002083E7606A40F400106062CA
:1024400001207DE7606A40F480206062012077E728
:10245000F0B504460A46216894F82050012D01D0B9
:10246000022D7ED1424901F50071086840F001005B
:102470000860086820F47C5008600868566A40EAE2
:1024800006200860107D00F01F06012000FA06F308
:10249000C8699843C861A1F50071D069C8B9D1F87D
:1024A0000C029843C1F80C02908880B2968940EAE9
:1024B000064601F51070576940F83760108880B201
:1024C000168940EA064601F51070576900EBC7000F
:1024D0004660D069012819D1D1F80C021843C1F81F
:1024E0000C02908880B2168840EA064601F510700A
:1024F000576940F83760908980B2168940EA0646ED
:1025000001F51070576900EBC7004660906928B963
:10251000D1F804029843C1F8040204E0D1F804029F
:102520001843C1F80402106928B9D1F8140298437D
:10253000C1F8140204E0D1F814021843C1F81402DF
:10254000106A012804D1D1F81C021843C1F81C02FA
:10255000D1F8000220F00100C1F800020020F0BD17
:10256000FFE7606A40F4802060620120F7E7000026
:1025700000640040704770B5044694F82050012D67
:1025800001D0022D7DD151B92068C06800F0030050
:1025900080B9606A40F400106062012070BD20685C
:1025A000006900F0030028B9606A40F4001060621E
:1025B0000120F3E7206800F5D87000EB01100068F7
:1025C00000F004009060906840B9206800F5D87071
:1025D00000EB01100068400D106007E0206800F576
:1025E000D87000EB01100068C0085060206800F54A
:1025F000D87000EB0110006800F00200D060206885
:1026000000F5D87000EB0110406800F00F00106179
:10261000206800F5D87000EB0110406800F47F409E
:10262000000A9061206800F5D87000EB0110406846
:10263000000C5061206800F5D87000EB0110806834
:102640001870206800F5D87000EB0110806800F465
:102650007F40000A5870206800F5D87000EB011028
:10266000806800F47F00000C9870206800F5D87036
:1026700000EB01108068000ED870206800F5D8705B
:1026800000E02FE000EB0110C0681871206800F531
:10269000D87000EB0110C06800F47F40000A587148
:1026A000206800F5D87000EB0110C06800F47F00CE
:1026B000000C9871206800F5D87000EB0110C0681C
:1026C000000ED87131B92068C06840F0200026683B
:1026D000F06005E02068006940F020002668306165
:1026E00000205BE7606A40F480206062012055E7CB
:1026F0002DE9F05F04460025206846692068D0F87F
:102700000490206887682068D0F80CA02068D0F872
:1027100010B02068D0F8188006F00100002855D0CD
:1027200007F00100C0B101202168886007F00200B5
:1027300018B1204600F069FB0EE007F0040010B16C
:1027400045F4006508E007F0080010B145F4805535
:1027500002E0204600F058FB07F48070C8B14FF447
:1027600080702168886007F4007018B1204600F07E
:102770004EFB0EE007F4806010B145F4005508E010
:1027800007F4006010B145F4804502E0204600F0F7
:102790003DFB07F48030C8B14FF480302168886079
:1027A00007F4003018B1204600F033FB0EE007F4C8
:1027B000802010B145F4004508E007F4002010B176
:1027C00045F4803502E0204600F022FB06F00800C8
:1027D00038B10AF0100020B145F4007510202168CE
:1027E000C86006F0040040B10AF0080028B10820D3
:1027F0002168C860204600F0A9F906F0020038B14F
:102800002068C06800F0030010B1204600F0A0F975
:1028100006F0400038B10BF0100020B145F480659F
:1028200010202168086106F0200040B10BF008007C
:1028300028B1082021680861204600F0B3FA06F0AC
:10284000100038B12068006900F0030010B1204684
:1028500000F0A9FA06F4003040B109F0100028B1E8
:10286000102021684860204600F09EFA06F480306F
:1028700040B109F0080028B10820216848602046CE
:1028800000F0C8FA06F4004088B309F0040078B3F9
:1028900006F4807020B108F0010008B145F0010590
:1028A00006F4007020B108F0020008B145F00205FE
:1028B00006F4806020B108F0040008B145F004057A
:1028C00006F40060A0B108F0700088B108F0700054
:1028D000402817D006DC10280BD020280CD0302838
:1028E00019D10CE0502810D0602814D110E01DE060
:1028F00019E045F008050FE045F010050CE045F043
:10290000200509E045F0400506E045F0800503E0BC
:1029100045F4807500E000BF00BF2068806920F0AA
:102920007000216888610420216848602DB1606AC8
:10293000284360622046FFF71DFEBDE8F09F70B59A
:1029400004460CB9012070BD94F8200010B920464F
:1029500000F0B0F82068006820F0020021680860EC
:1029600000F0C0FD05460DE000F0BCFD401B0A284C
:1029700008D9606A40F400306062052084F82000C5
:102980000120E0E72068406800F002000028EBD159
:102990002068006840F001002168086000F0A2FD96
:1029A00005460DE000F09EFD401B0A2808D9606A2C
:1029B00040F400306062052084F820000120C2E766
:1029C0002068406800F001000028EBD0207E01283C
:1029D00006D12068006840F080002168086005E0AA
:1029E0002068006820F0800021680860607E01286F
:1029F00006D12068006840F040002168086005E0CA
:102A00002068006820F0400021680860A07E01284E
:102A100006D12068006840F020002168086005E0C9
:102A20002068006820F0200021680860E07E01280E
:102A300006D12068006820F010002168086005E0D9
:102A40002068006840F0100021680860207F01289D
:102A500006D12068006840F008002168086005E0A1
:102A60002068006820F0080021680860607F012865
:102A700006D12068006840F004002168086005E085
:102A80002068006820F0040021680860D4E9020191
:102A9000084321690843616908436168491E084386
:102AA0002168C86100206062012084F820000020B5
:102AB00049E7000010B586B00446142101A8FDF7CF
:102AC000BDFC1F492068884237D100BF002000901C
:102AD0001C48006840F000701A4908600846006809
:102AE00000F00070009000BF00BF00BF0020009009
:102AF00014481038006840F0080012491039086086
:102B00000846006800F00800009000BF00BF0320E6
:102B100001900220029000200390032004900920DD
:102B2000059001A9084800F0BFFB002206211420EF
:102B300000F086FD142000F073FD06B010BD00000B
:102B40000064004040380240000C02407047000022
:102B500030B52DED0A8B83B0044601AB874A0021C6
:102B60002046FFF708FD85480068A0F201200828EC
:102B70007DD2DFE800F02C04FDA5FDFD7D548048EA
:102B8000C08B7F4988839DF805009DF8041040EABA
:102B900001207B49C8839DF807009DF8061040EA94
:102BA000012000B2764908849DF809009DF80810BC
:102BB00040EA012000B2724988840846C088401C5F
:102BC00081B26F48C18001206D490871D1E06D4824
:102BD000C08B6C4988839DF805009DF8041040EA7D
:102BE00001206849C8839DF807009DF8061040EA57
:102BF000012000B2634908849DF809009DF808107F
:102C000040EA012000B25F4988840846C088401C21
:102C100081B25C48C18001205A490871A9E05A4834
:102C2000C08B594988839DF805009DF8041040EA3F
:102C300001205549C8839DF807009DF8061040EA19
:102C4000012000B2504908849DF809009DF8081041
:102C500040EA012000B24C4988840846C088401CE4
:102C600081B24948C18001204749087181E07FE075
:102C70004648C08B454988839DF805009DF804109F
:102C800040EA01204149C8839DF807009DF80610DD
:102C900040EA012000B23D4908849DF809009DF8F2
:102CA000081040EA012000B2384988840846C088EC
:102CB000401C81B23548C18001203449087158E078
:102CC0003348C08B324988839DF805009DF8041075
:102CD00040EA01202E49C8839DF807009DF80610A0
:102CE00040EA012000B22A4908849DF809009DF8B5
:102CF000081040EA012000B2254988840846C088AF
:102D0000401C81B22248C1800120214908710B4634
:102D1000DA8B998BB3F9200009F0A6FC0546FDF784
:102D200020FD41EC1C0B9FED1B0B53EC102BFDF712
:102D300037FC41EC1B0B9FED190B53EC102BFDF7EF
:102D4000A1FC41EC190B124890ED050A10EE101A87
:102D50000846FDF717FD41EC1A0B53EC192BFDF754
:102D600078FB41EC180BFDF751FD0949486100E083
:102D700000BF00BF03B0BDEC0A8B30BDD80A0020F5
:102D80000C0C0020800C0020680B0020F40A0020AE
:102D9000F40C0020000000000080764000000000DD
:102DA00070FF114170477047704770B5044694F842
:102DB0002000012822D1022084F820002068006829
:102DC00020F001002168086000F08CFB05460DE052
:102DD00000F088FB401B0A2808D9606A40F40030E4
:102DE0006062052084F82000012070BD20684068E2
:102DF00000F001000028EBD16062F6E7606A40F461
:102E0000002060620120F0E770477047704770470C
:102E10007047704770472DE9F04704460E46174645
:102E20001D46DDF820804FF00009A068802804D1FD
:102E3000400060654FF0010929E000BF94F83400BC
:102E4000012802D10220BDE8F087012084F8340077
:102E500000BF94F83500012817D1022084F835000E
:102E60002068006840F480202168086020680561BF
:102E700043463A4631462046FEF75DF82068006832
:102E800040F001002168086001E04FF00209484667
:102E9000D9E7014691F83500022803D08020486523
:102EA00001207047052081F835000868006820F08F
:102EB00001000A6810600020F3E70146486D704782
:102EC000F8B50446002000908C4800684FF4165175
:102ED000B0FBF1F7A56D2E6894F85C1008208840CF
:102EE000304098B12068006800F0040070B120689C
:102EF000006820F004002168086094F85C10082045
:102F00008840A860606D40F00100606594F85C1036
:102F100001208840304068B12068406900F080009E
:102F200040B194F85C1001208840A860606D40F0CA
:102F30000200606594F85C1004208840304068B15D
:102F40002068006800F0020040B194F85C10042092
:102F50008840A860606D40F00400606594F85C10E3
:102F600010208840304078B32068006800F00800E6
:102F700050B394F85C1010208840A8602068006866
:102F800000F4802080B12068006800F4002028B997
:102F9000206CC8B12046216C884715E0A06C98B120
:102FA0002046A16C88470FE02068006800F480701C
:102FB00028B92068006820F0080021680860206CAB
:102FC00010B12046216C884794F85C10202088407E
:102FD0003040002865D02068006800F0100000280C
:102FE0005FD094F85C1020208840A86094F83500E9
:102FF000052828D12068006820F0160021680860A4
:103000002068406920F0800021684861206C08B980
:10301000A06C28B12068006820F0080021680860D2
:1030200094F85C103F208840A86000BF002084F81E
:10303000340000BF012084F83500206D10B1204617
:10304000216D8847F8BD2068006800F4802080B1B9
:103050002068006800F4002028B9606C10B1204698
:10306000616C88471DE0E06BD8B12046E16B884772
:1030700017E02068006800F4807068B92068006874
:1030800020F010002168086000BF002084F83400A0
:1030900000BF012084F83500E06B10B12046E16BE1
:1030A0008847606D38B3606D00F00100F0B1052015
:1030B00084F835002068006820F00100216808606D
:1030C00000BF0098401C0090B84200D905E020687D
:1030D000006800F001000028F3D100BF00BF00200D
:1030E00084F8340000BF012084F83500E06C10B192
:1030F0002046E16C884700BFA4E70000D80100200B
:103100002DE9F0410446002500F0ECF9074614B91A
:103110000120BDE8F081606A00B100BF00BF00205F
:1031200084F8340000BF022084F83500206800686D
:1031300020F00100216808600AE000F0D3F9C01B0C
:10314000052805D920206065032084F83500E0E7D4
:103150002068006800F001000028EED120680568B2
:1031600021480540D4E901010843E1680843216989
:10317000084361690843A1690843E1690843216A7A
:1031800008430543606A042803D1D4E90B010843CE
:103190000543206805602068456925F00705606AD9
:1031A0000543606A04280DD1A06A0543E06A48B16E
:1031B0002046FDF76BFE28B140206065012084F8B1
:1031C0003500A6E7206845612046FDF745FE064626
:1031D00094F85C103F208840B060002060650120BA
:1031E00084F83500002094E73F8010F02DE9F04787
:1031F00004460D4616461F464FF00008D4F8589076
:1032000000BF94F83400012802D10220BDE8F08705
:10321000012084F8340000BF94F83500012825D13E
:10322000022084F83500002060653B46324629467E
:103230002046FDF790FE94F85C103F208840C9F8C6
:1032400008002068006840F0160021680860206CC3
:1032500028B12068006840F00800216808602068F4
:10326000006840F001002168086006E000BF00200F
:1032700084F8340000BF4FF002084046C6E7000063
:1032800070B5044600F02EF906462546681C10B1BC
:1032900004480078054400BF00F024F9801BA842D0
:1032A000FAD370BDD4010020F8B502460B460025C4
:1032B000002400200021E6E0012606FA01F51E6840
:1032C00006EA0504AC4273D15E68012E08D05E6840
:1032D000022E05D05E68112E02D05E68122E13D128
:1032E00090684F000326BE40B0434F00DE68BE40EA
:1032F00030439060506801268E40B0431E79C6F37B
:1033000000168E4030435060D0684F000326BE4008
:10331000B0434F009E68BE403043D0605E68022ECE
:1033200002D05E68122E13D1CF0802F1200656F8A3
:1033300027004E07F70E0F26BE40B0434F07FF0E83
:103340001E69BE403043CF0802F1200646F8270030
:1033500010684F000326BE40B0431E7906F00306F6
:103360004F00BE40304310605E6806F08056B6F1F4
:10337000805FA8D100BF00260096454E366846F40F
:103380008046434F3E603E46366806F480460096CF
:1033900000BF00BF3F4E8F0856F827008E07370F3B
:1033A0000F26BE40B0433C4EB24202D100262EE072
:1033B00068E03A4EB24201D1012628E0384EB242CE
:1033C00001D1022623E0374EB24201D103261EE08E
:1033D000354EB24201D1042619E0344EB24201D139
:1033E000052614E0324EB24201D106260FE0314EDE
:1033F000B24201D107260AE02F4EB24201D108267F
:1034000005E02E4EB24201D1092600E00A268F07C0
:103410003F0FBE4030431F4E8F0846F82700284E0E
:103420003068A0435E6806F48036B6F5803F00D170
:103430002043234E3060361D3068A0435E6806F49A
:103440000036B6F5003F00D120431D4E361D3060DA
:10345000361D3068A0435E6806F48016B6F5801FFE
:1034600000D12043164E08363060361D3068A04328
:103470005E6806F40016B6F5001F00D12043104E1A
:103480000C363060491C1029FFF416AFF8BD00005F
:103490004438024008380140000002400004024065
:1034A00000080240000C02400010024000140240DC
:1034B00000180240001C024000200240002402408C
:1034C000003C014042690A408A4202D10A048261FA
:1034D00000E0816170470AB1816101E00B04836102
:1034E000704700000148006870470000CC010020D0
:1034F0000348006803490978084401490860704797
:10350000CC010020D401002010B50D48006840F423
:1035100000700B4908600846006840F4806008604D
:103520000846006840F480700860032000F0C6F888
:10353000002000F007F800F049F8002010BD00005E
:10354000003C024070B588B00446002500260022E9
:1035500021461C2000F074F81C2000F061F800BF28
:10356000002001901648006840F0010014490860EE
:103570000846006800F00100019000BF00BF02A9EA
:1035800003A800F071F900F097F945000D48B5FB6C
:10359000F0F0461E4FF080400B49086040F2E731E2
:1035A0000948C160466000210161816001F070FB43
:1035B00020B9054801F0AAFB08B070BD0120FBE767
:1035C0004038024040420F00A822002008B500BF4A
:1035D000002000901148006840F480400F490860C6
:1035E0000846006800F48040009000BF00BF00BFA4
:1035F00000200090081F006840F08050091F0860FC
:103600000846006800F08050009000BF00BF002214
:103610000F21901E00F014F808BD0000443802404D
:1036200001460846002809DB00F01F0301229A40EA
:1036300043099B0003F1E023C3F8002100BF70475A
:103640002DE9F05F80460D461646002707F07CF80E
:10365000074639462A46334601F00700C0F1070AFB
:10366000BAF1040F02D94FF0040A01E0C0F1070AD1
:10367000D14600F1040ABAF1070F02D24FF0000A56
:1036800001E0A0F1030AD4464FF0010A0AFA09FA50
:10369000AAF1010A0AEA020A0AFA0CFA4FF0010B2F
:1036A0000BFA0CFBABF1010B0BEA030B4AEA0B0420
:1036B0002146404607F050F8BDE8F09F00BF00F0FB
:1036C0000702064B19684FF6FF031940044B0B43E2
:1036D00043EA0221014B196000BF70470CED00E086
:1036E0000000FA0570B504460D460CB9012070BD06
:1036F0005848006800F00F00A84209D255490D70E3
:103700000846006800F00F00A84201D00120EEE753
:10371000207800F0020002281DD1207800F004007B
:10372000042805D14C48006840F4E0504A4908603C
:10373000207800F00800082805D14748006840F4C8
:103740006040454908604448006820F0F000A168E6
:10375000084341490860207800F00100A8B3606880
:10376000012807D13C4808380068C0F34040B8B988
:103770000120BCE76068022802D06068032807D1F6
:10378000354808380068C0F3406048B90120AEE70A
:10379000314808380068C0F3400008B90120A6E7A6
:1037A0002D48006820F00300616808432A4908603A
:1037B000FFF798FE064609E0FFF794FE801B41F2F2
:1037C0008831884202D9032091E707E02248006847
:1037D00000F00C006168B0EB810FEDD11D4800686E
:1037E00000F00F00A84209D91A490D700846006878
:1037F00000F00F00A84201D0012078E7207800F007
:103800000400042807D11448006820F4E050E1685F
:10381000084311490860207800F00800082808D102
:103820000D48006820F46040216940EAC1000A495F
:10383000086000F061F808490968C1F30311074AFC
:10384000515CC8400649086006480068FFF77AFEE8
:1038500000204CE7003C024008380240D43C0108FC
:10386000D8010020D00100200F2202600D4A12680A
:1038700002F0030242600B4A126802F0F00282601A
:10388000084A126802F4E052C260064A126802F462
:103890006042D2080261044A126802F00F020A6014
:1038A0007047000008380240003C024001480068B0
:1038B00070470000D801002000B5FFF7F7FF04496A
:1038C0000968C1F38221034A515CC84000BD000071
:1038D00008380240E43C010800B5FFF7E7FF04495F
:1038E0000968C1F34231034A515CC84000BD000081
:1038F00008380240E43C01082DE9F0470024002587
:103900000026A1462548006800F00C0020B10428DC
:1039100005D008283AD105E0DFF8849039E0DFF8D7
:10392000849036E01D48001F006800F03F041B48EB
:10393000001F006800F4800078B11A481749091F79
:103940000968C1F38811A0FB0170014622460023DB
:103950003846FCF729FD05460EE011480F49091FBE
:103960000968C1F38811A0FB0170014622460023BB
:103970003846FCF719FD05460848001F0068C0F3EB
:103980000140401C4600B5FBF6F902E0DFF810905C
:1039900000BF00BF4846BDE8F0870000083802407D
:1039A0000024F400001BB700F8B504460CB9012050
:1039B000F8BD207800F00100002874D0F9480068B4
:1039C00000F00C0004280DD0F648006800F00C0050
:1039D000082813D1F348001F006800F48000B0F5F8
:1039E000800F0BD1EF4808380068C0F34040002832
:1039F00059D06068002856D10120D9E700BF60681F
:103A0000B0F5803F08D1E7480838006840F48030BE
:103A1000E449083908601EE06068B0F5A02F0DD1B8
:103A2000E0480838006840F48020DE490839086022
:103A30000846006840F4803008600CE0D948083837
:103A4000006820F48030D7490839086008460068CB
:103A500020F48020086000BF606890B1FFF742FD4D
:103A6000054606E0FFF73EFD401B642801D9032010
:103A70009EE7CC4808380068C0F340400028F1D0E9
:103A800011E0FFF72FFD054606E0FFF72BFD401B79
:103A9000642801D903208BE7C24808380068C0F3C6
:103AA00040400028F1D1207800F0020002285FD1C8
:103AB000BC48006800F00C0058B1BA48006800F03B
:103AC0000C0008281CD1B748001F006800F48000D3
:103AD000B0B9B44808380068C0F3400020B1E068CD
:103AE000012801D0012063E7AE480838006820F0C3
:103AF000F800216940EAC100AA490839086037E0A6
:103B0000E06800B30120A8490860FFF7EBFC054618
:103B100006E0FFF7E7FC401B022801D9032047E736
:103B2000A04808380068C0F340000028F1D09D4844
:103B30000838006820F0F800216940EAC10099497E
:103B40000839086014E0002097490860FFF7CAFCB4
:103B5000054606E0FFF7C6FC401B022801D90320FA
:103B600026E7904808380068C0F340000028F1D1EB
:103B7000207800F0080008282CD16069A8B1012045
:103B80008A490860FFF7AEFC054606E0FFF7AAFC8D
:103B9000401B022801D903200AE782486C300068E4
:103BA000C0F340000028F1D014E000207F490860F5
:103BB000FFF798FC054606E0FFF794FC401B02283F
:103BC00001D90320F4E677486C300068C0F3400068
:103BD0000028F1D1207800F00400042870D10027DB
:103BE00070483830006800F0805090B900BF002065
:103BF00000906C483830006840F080506949383196
:103C000008600846006800F08050009000BF00BFC8
:103C100001276748006800F48070B0B96448006804
:103C200040F4807062490860FFF75CFC054606E0DE
:103C3000FFF758FC401B022801D90320B8E65C4876
:103C4000006800F480700028F2D000BFA06801284E
:103C500008D154486830006840F00100514968318B
:103C600008601DE0A06805280DD14E486830006846
:103C700040F004004B49683108600846006840F095
:103C8000010008600CE047486830006820F001003F
:103C90004449683108600846006820F00400086064
:103CA00000BFA068A8B1FFF71DFC054609E0FFF7BB
:103CB00019FC401B41F28831884202D9032077E683
:103CC00026E0384868300068C0F340000028EED095
:103CD00013E0FFF707FC054608E0FFF703FC401B75
:103CE00041F28831884201D9032061E62D486830CD
:103CF0000068C0F340000028EFD1012F07D1294808
:103D00003830006820F0805026493831086000BF04
:103D1000A069002845D02348006800F00C0008285E
:103D20005DD0A069022845D100201F490866FFF731
:103D3000D9FB054606E0FFF7D5FB401B022801D959
:103D4000032035E6174808380068C0F340600028B3
:103D5000F1D1D4E907010843616A40EA81110122E7
:103D6000A06AC2EB500041EA00412C20005D41EA0C
:103D700000600C49091F086001200B490866FFF725
:103D8000B1FB054606E0FFF7ADFB401B022801D959
:103D900003200DE6034808380068C0F3406000289F
:103DA000F1D03FE00838024000004742800E474211
:103DB0000070004000201C490866FFF793FB054691
:103DC00006E0FFF78FFB401B022801D90320EFE537
:103DD00016480068C0F340600028F2D122E0A069D4
:103DE000012800D1E4E51148001D066806F48001B1
:103DF000E069814214D106F03F01206A81420FD16F
:103E000047F6C0703040616A884209D106F44031FB
:103E1000A06A814204D106F07061E06A814201D05B
:103E20000120C5E50020C3E50000474200380240FC
:103E300010B50446FCF79CFE10BD000070B58AB0BA
:103E400004460D46032084F83400606C032820D01B
:103E5000B5F5805F04D1A06B40F08050A0631CE0FA
:103E6000B5F5006F07D1204604F063FA0646A06B53
:103E70003043A06311E03DB9204604F026FA06461F
:103E8000A06B3043A06308E0A06B40F00060A0632B
:103E900003E0A06B40F08050A063A06B38B11048E5
:103EA00021688863012084F834000AB070BD60681E
:103EB0000490A0680590E0680690079560690890F6
:103EC000A069099007A807C88DE80700206804A921
:103ED0000EC903F069FB012084F834000020E4E7F8
:103EE000FF0540007047000010B50246506E800F7D
:103EF0000870506EC0F383604870506EC0F301606C
:103F00008870506E000CC870B2F86400000A087126
:103F100092F864004871906E000DC880906EC0F3F6
:103F2000034008726820805AC0F3C030487268208D
:103F3000805AC0F3803088726820805AC0F34030C5
:103F4000C8726820805AC0F300300873002048739C
:103F5000506C002836D16820805A8005030DD06E41
:103F600043EA90700861D06EC0F3C2600875D06EED
:103F7000C0F302604875D06EC0F342508875D06EB1
:103F8000C0F38240C875D06EC0F3C23008760869AD
:103F9000401C50650B7E506D03F007039B1C0124F1
:103FA0009C4060435065087A00F00F030120984060
:103FB0009065D2E915035B0A5843D0654FF400734E
:103FC000136621E0506C012813D16820805C8006C4
:103FD000830AD06E43EA104008610869401C8302DE
:103FE0005365536DD3654FF400739365936D1366FA
:103FF0000AE02E4813689863906B40F080509063FD
:10400000012082F8340010BD6C20805AC0F380304B
:1040100001F8190F6C20805AC0F3C61048706C204C
:10402000805C00F07F008870106FC00FC870106F48
:10403000C0F341700871106FC0F382604871106F57
:10404000C0F383508871106FC0F34050C8710020D6
:104050000872106FC0F3004048727020805AC0F39D
:10406000C03088727020805AC0F38030C8727020CF
:10407000805AC0F3403008737020805AC0F300307B
:1040800048737020805AC0F3812088737020805A52
:10409000C0F30120C8737020805CC0F34600087430
:1040A0000120487419390020ADE70000FF054000E9
:1040B0000246506C0860906C4860D06C8860106D4F
:1040C000C860506D0861906D4861D06D8861106E58
:1040D000C86100207047F8B504460020009069468A
:1040E000204604F0DAF8054615B1A06B2843A0631A
:1040F0000098C0F343263046F8BD000070B5044672
:10410000256B2068406BC0F3C03030B105F008006B
:1041100018B1204604F09CF8F8E02068406BC0F32A
:104120000020002862D04FF48070216888632068E6
:10413000C06B4CF23A3188432168C8632068C06A7A
:1041400020F001002168C86205F0080038B305F0CE
:10415000020010B905F0200050B1206803F0E4FB24
:1041600006462EB1A06B3043A0632046FFF7BAFE8F
:1041700040F23A5021688863012084F8340000201E
:10418000206305F0010010B905F0020018B12046C7
:1041900000F092FABAE0204600F093FAB6E005F09B
:1041A00080000028B8D005F0200050B1206803F04E
:1041B000BBFB06462EB1A06B3043A0632046FFF741
:1041C00091FE05F001000028A6D105F002000028AC
:1041D000A2D12068C06A20F008002168C8620120CE
:1041E00084F83400204600F06CFA8FE02068406BC1
:1041F000C0F3803030B105F0080018B1204604F05B
:10420000CCF883E02068406B40F23A21084008B1C6
:10421000012000E00020002878D02068406BC0F327
:10422000400018B1A06B40F00200A0632068406B12
:10423000C0F3C00018B1A06B40F00800A063206874
:10424000406BC0F3401018B1A06B40F02000A06399
:104250002068406BC0F3001018B1A06B40F0100054
:10426000A0632068406BC0F3402018B1A06B40F001
:104270000800A06340F23A70216888632068C06B30
:1042800040F23A3188432168C863206803F04CFB50
:10429000A16B0843A06305F0080040B1012084F839
:1042A0003400002020632046FFF71CFE2EE005F0BE
:1042B000800000B305F0100010B905F0200050B1E7
:1042C0001348E16B0865E06BFEF7E3FD98B1E06B26
:1042D00003F019FE1AE005F0010010B905F0020024
:1042E00050B10C48216C0865206CFEF7D2FD10B16E
:1042F000206C03F0DBFD09E00020A063012084F8BE
:104300003400002020632046FFF792FD70BD0000BE
:10431000077F0008AD7E000810B504460CB90120E7
:1043200010BD94F8340020B900202077204600F01A
:1043300053F8032084F83400204600F00BF808B14D
:104340000120EDE70020A0632063012084F8340001
:104350000020E5E770B58AB004460020049005907F
:104360000690079008907620099007A807C88DE866
:104370000700206804A90EC903F016F9064616B115
:1043800001200AB070BD002012490860206803F0C7
:1043900025F901200F49A039C1F8A000204603F0FB
:1043A000F1FE05463DB1012084F83400A06B28439E
:1043B000A0630120E5E7204603F063FE05463DB11A
:1043C000012084F83400A06B2843A0630120D8E7C3
:1043D0000020D6E7A080254210B586B004461421FF
:1043E00001A8FCF72BF85849206888427ED100BF0D
:1043F000002000905548006840F400605349086070
:104400000846006800F40060009000BF00BF00BFD5
:10441000002000904D481438006840F004004B49DB
:10442000143908600846006800F00400009000BFDE
:1044300000BF00BF002000900846006840F0080060
:1044400008600846006800F00800009000BF00BF48
:104450004FF4F850019002200290002003900320B6
:1044600004900C20059001A93948FEF71DFF042097
:1044700001900220029000200390032004900C2061
:10448000059001A93348FEF70FFF33483349086010
:104490004FF000604860002130488160C1604FF4F7
:1044A0008061016189004161890081612021C161D0
:1044B0000021016204214162032181624FF4000165
:1044C000C16289100163FEF71BFE08B1FCF75BFDBA
:1044D00000BF22482064846300BF1F484838204939
:1044E00008604FF000604860402100E029E01C486F
:1044F00081600021C1604FF48061016189004161E8
:10450000890081612021C161002101620421416291
:10451000032181624FF40001C16289100163FEF73B
:10452000EFFD08B1FCF72FFD00BF0D48E063846389
:1045300000BF002205213120FFF782F83120FFF76C
:104540006FF806B010BD0000002C01404438024056
:1045500000080240000C0240A0640240501C0020F1
:10456000B01C00202DE9F04387B004460F46914669
:104570001E46C8463FB9A06B40F00060A063012012
:1045800007B0BDE8F08394F83400012871D1002011
:10459000A06308EB0601E06D814205D9A06B40F0F5
:1045A0000070A0630120EBE7032084F834000020B2
:1045B0002168C8622068C06B40F22A310843216834
:1045C000C8633948216CC8633848216CC86400202E
:1045D000216C086572029308226802F180013A4654
:1045E000206CFEF703FE80B12068C06B20F495704C
:1045F0002168C8632E4821688863A06B40F0804022
:10460000A063012084F83400BAE70120294908603A
:10461000606C012801D04FEA48284FF400712068EF
:1046200003F03EF805464DB1214821688863A06B30
:104630002843A063012084F83400A1E74FF0FF3045
:1046400001907002029090200390022004900020BC
:1046500005900120069001A9206802F077FF012E45
:1046600008D9822020634146206803F081F805467E
:1046700007E016E0812020634146206803F094F8AB
:10468000054665B10A4821688863A06B2843A0638A
:10469000012084F8340000202063012070E700200E
:1046A0006EE702206CE70000657E0008F17D0008DF
:1046B000FF0540008C85254210B50446FCF7A2FAA0
:1046C00010BD10B50446FCF7BBFA10BD2DE9F04350
:1046D00087B00446884691461E464F46B8F1000F03
:1046E00007D1A06B40F00060A063012007B0BDE8D7
:1046F000F08394F83400012877D10020A063B91921
:10470000E06D814205D9A06B40F00070A0630120EC
:10471000ECE7032084F8340000202168C862206898
:10472000C06B40F21A2108432168C8633948E16B25
:10473000C8633948E16BC8640020E16B0865606CB0
:10474000012800D07F024FF40071206802F0A8FF1A
:1047500005464DB1314821688863A06B2843A063AA
:10476000012084F83400C1E7012E07D9A02020637E
:104770003946206803F0F6F8054606E090202063ED
:104780003946206803F00AF9054665B123482168D7
:104790008863A06B2843A063012084F834000020C4
:1047A00020630120A2E701201D49086071028B08E7
:1047B000216801F180024146E06BFEF717FDA8B1C8
:1047C0002068C06B40F21A2188432168C8631348EF
:1047D00021688863A06B40F08040A063012084F8CA
:1047E000340000202063012080E711E04FF0FF300B
:1047F0000190700202909020039000200490059098
:104800000120069001A9206802F0A0FE00206DE7BB
:1048100002206BE7F57E0008F17D0008FF054000EF
:104820008C85254210B504460CB9012010BD606A84
:1048300000B900BF0021A16294F8510028B90020FE
:1048400084F85000204600F033F8022084F851002C
:104850002068006820F0400021680860D4E9010168
:104860000843E16808432169084361690843218BD3
:1048700001F400710843E1690843216A0843A16A11
:104880000843216808600421A06901EA1040616AB8
:104890000843216848602068C06920F400602168EE
:1048A000C86100206065012084F851000020BDE748
:1048B00010B586B00446142101A8FBF7BFFD1B49C3
:1048C0002068884230D100BF00200090184800685E
:1048D00040F48010164908600846006800F4801013
:1048E000009000BF00BF00BF0020009010481438A7
:1048F000006840F020000E4914390860084600683E
:1049000000F02000009000BF00BF4FF460700190E5
:1049100002200290002003900320049005200590BF
:1049200001A90448FEF7C0FC06B010BD00500140CC
:1049300044380240001402402DE9FF5F04468846D7
:1049400091461D460E9E012002900020019000BF5E
:1049500094F85000012803D1022004B0BDE8F09F74
:10496000012084F8500000BFFEF7BCFD074694F814
:1049700051B060680390AA46BBF1010F0BD00398B9
:10498000B0F5827F04D1A06810B9BBF1040F02D04A
:1049900002200190DBE0B8F1000F03D0B9F1000F65
:1049A00000D015B901200190D1E094F851000428FD
:1049B00002D0052084F8510000206065C4F83890CA
:1049C000E587A587C4F83080E586A5862064606405
:1049D0002068006800F04000402805D0206800688A
:1049E00040F0400021680860E068B0F5006F4AD1EF
:1049F000606810B1BAF1010F09D1206B00882168FD
:104A0000C860206B801C2063E08E401EE08633E08F
:104A10002068806800F00200022810D1E08E70B19A
:104A2000029801280BD1206B00882168C860206B98
:104A3000801C2063E08E401EE086002002902068EB
:104A4000806800F0010068B1E08F58B12068C0684C
:104A5000A16B0880A06B801CA063E08F401EE087E4
:104A600001200290FEF73EFDC01BB04204D3701C33
:104A700010B1032001906AE0E08E0028C8D1E08FD9
:104A80000028C5D14AE0606810B1BAF1010F09D120
:104A9000206B007821680873206B401C2063E08E37
:104AA000401EE08634E02068806800F002000228A2
:104AB00010D1E08E70B1029801280BD1206B0078E4
:104AC00021680873206B401C2063E08E401EE08646
:104AD000002002902068806800F0010068B1E08F3B
:104AE00058B12068C068A16B0870A06B401CA0631F
:104AF000E08F401EE08701200290FEF7F3FCC01B10
:104B0000B04201D3701C00B916B9032001901EE019
:104B1000E08E0028C7D1E08F0028C4D13A46314644
:104B2000204603F059FD20B101200190202060654E
:104B30000DE0A06850B900BF002000902068C06858
:104B4000009020688068009000BF00BF00BF012077
:104B500084F8510000BF002084F8500000BF019885
:104B6000FBE67047704710B50346002200BF93F87C
:104B70003C00012801D1022010BD012083F83C0037
:104B800000BF22F0FF00CC6840EA040222F440702B
:104B90008C6840EA040222F480604C6840EA040217
:104BA00022F400600C6840EA040222F480500C6990
:104BB00040EA040222F400504C6940EA040222F464
:104BC0008040CC6940EA04021868426400BF0020BB
:104BD00083F83C0000BF00BFCEE7000030B50246BE
:104BE0000B4600BF92F83C00012801D1022030BDE5
:104BF000012082F83C0000BF022082F83D001068CE
:104C000044681068816824F07004186804431068D0
:104C10004460184D1068A8421BD01068B0F1804F56
:104C200017D0154D1068A84213D0144D1068A84233
:104C30000FD0134D1068A8420BD0124D1068A84237
:104C400007D0114D1068A84203D0104D1068A8423B
:104C500005D121F08001586801431068816001206E
:104C600082F83D0000BF002082F83C0000BF00BF7A
:104C7000BDE70000000001400004004000080040C3
:104C8000000C0040000401400040014000180040BA
:104C900010B504460CB9012010BD94F83D0028B9A8
:104CA000002084F83C00204600F00CF8022084F834
:104CB0003D00211D206804F097F9012084F83D0093
:104CC0000020E9E738B504460E492068884217D12C
:104CD00000BF002000900C48006840F008000A491E
:104CE00008600846006800F00800009000BF00BFA0
:104CF000002205213220FEF7A3FC3220FEF790FCB3
:104D000038BD0000000C00404038024001460868F1
:104D1000C06840F001000B68D8600868806800F047
:104D20000702062A05D00868006840F001000B68F9
:104D30001860002070472DE9F04104460D4600BF81
:104D400094F83C00012802D10220BDE8F081012046
:104D500084F83C0000BF022084F83D00206886688B
:104D600026F0770626F47F4620688660286850285B
:104D700033D00CDC202850D004DC00284BD0102885
:104D800051D149E0302849D040284CD139E0602841
:104D90002DD0702807D0B0F5805F03D0B0F5005F4C
:104DA00041D10DE040E0D5E902136A68206804F0C3
:104DB00098F92068866846F077062068866033E0B8
:104DC000D5E902136A68206804F08BF920688068CE
:104DD00040F480402168886026E0EA6869682068BD
:104DE00004F070FA5021206804F086F91CE0EA68AB
:104DF0006968206804F079FA6021206804F07CF981
:104E000012E0EA686968206804F05CFA40212068D2
:104E100004F072F908E000BF00BF00BF29682068F5
:104E200004F06AF900E000BF00BF012084F83D00F3
:104E300000BF002084F83C0000BF00BF85E770473A
:104E400010B5044620680069C0F34000D8B120685E
:104E5000C068C0F34000B0B16FF002002168086183
:104E6000012020772068806900F0030018B12046F7
:104E7000FFF7E5FF05E0204600F024F9204600F0AA
:104E8000F3F90020207720680069C0F38000D8B1D2
:104E90002068C068C0F38000B0B16FF004002168E2
:104EA0000861022020772068806900F4407018B102
:104EB0002046FFF7C4FF05E0204600F003F9204636
:104EC00000F0D2F90020207720680069C0F3C0000C
:104ED000D8B12068C068C0F3C000B0B16FF008005E
:104EE00021680861042020772068C06900F0030071
:104EF00018B12046FFF7A3FF05E0204600F0E2F8D6
:104F0000204600F0B1F90020207720680069C0F346
:104F10000010D8B12068C068C0F30010B0B16FF0C5
:104F2000100021680861082020772068C06900F41B
:104F3000407018B12046FFF782FF05E0204600F0E0
:104F4000C1F8204600F090F9002020772068006921
:104F500000F0010058B12068C06800F0010030B1D5
:104F60006FF0010021680861204600F0ABF920686D
:104F70000069C0F3C01058B12068C068C0F3C01009
:104F800030B16FF08000216808612046FFF7E9FD2D
:104F900020680069C0F3801058B12068C068C0F371
:104FA000801030B16FF0400021680861204600F0A9
:104FB0009BF920680069C0F3401058B12068C068B0
:104FC000C0F3401030B16FF0200021680861204626
:104FD000FFF7C8FD10BD000010B586B004461421CF
:104FE00001A8FBF72BFA3149206888423BD100BF6A
:104FF000002000902E48006840F001002C49086015
:105000000846006800F00100009000BF00BF00BF2C
:10501000002000900846006840F010000860084634
:10502000006800F01000009000BF00BF4FF4407017
:10503000019002200290002003900490012005902E
:1050400001A91C48FEF730F94FF4C040019002203E
:1050500002900020039004900120059001A91648B9
:10506000FEF722F920E01549206888421CD100BFD4
:10507000002000900E48006840F002000C490860D3
:105080000846006800F00200009000BF00BF20202A
:1050900001900220029000200390049002200590CD
:1050A00001A90748FEF700F906B010BD0000014055
:1050B000303802400000024000100240000400406E
:1050C00000040240704770B504460D46164600BF06
:1050D00094F83C00012801D1022070BD012084F821
:1050E0003C0000BF022084F83D0036B1042E1BD0E6
:1050F000082E31D00C2E5ED145E02946206804F000
:1051000005F82068806940F00800216888612068FF
:10511000806920F00400216888612068806929691D
:1051200008432168886147E02946206804F026F892
:105130002068806940F40060216888612068806987
:1051400020F480602168886120688069296940EACC
:105150000120216888612FE02946206804F04CF87E
:105160002068C06940F008002168C8612068C069F3
:1051700020F004002168C8612068C06929690843DB
:105180002168C86118E02946206804F071F8206899
:10519000C06940F400602168C8612068C06920F4DB
:1051A00080602168C8612068C069296940EA0120DF
:1051B0002168C86100E000BF00BF012084F83D0005
:1051C00000BF002084F83C0000BF00BF85E710B599
:1051D00004460CB9012010BD94F83D0028B9002008
:1051E00084F83C00204600F00DF8022084F83D00D1
:1051F000211D206803F0F8FE012084F83D00002006
:10520000E9E7000008B5154A016891420FD100BFD7
:10521000002100911249096841F00101104A116012
:105220001146096801F00101009100BF15E00D4A27
:105230000168914211D100BF002100910849091F66
:10524000096841F00201064A121F116011460968FF
:1052500001F00201009100BF00BF08BD0000014045
:1052600044380240000400407047000070B5044616
:105270000E4601223146206803F022FF0F492068C4
:10528000884203D00E492068884201D1012000E005
:10529000002028B12068406C40F400402168486438
:1052A0002068806800F00705062D05D0206800689A
:1052B00040F0010021680860002070BD000001403E
:1052C0000004014010B504462068B0F1804F01D1C0
:1052D000FEF70EF9034920680968884201D105F0FC
:1052E000F7F810BDE81D0020704770472DE9F04722
:1052F0000446206805682068C668206847694FF042
:105300000008C14605F00F08B8F1000F0AD105F0FA
:10531000200038B106F0200020B1204604F088FDBE
:10532000BDE8F087B8F1000F72D007F0010018B99E
:1053300006F4907000286BD005F0010030B106F43F
:10534000807018B1E06B40F00100E06305F00400EC
:1053500030B107F0010018B1E06B40F00200E063EB
:1053600005F0020030B107F0010018B1E06B40F029
:105370000400E06305F0080048B106F0200010B911
:1053800007F0010018B1E06B40F00800E063E06B4B
:1053900070B305F0200028B106F0200010B12046BF
:1053A00004F046FD20684069C0F38019E06B00F00E
:1053B000080010B9B9F1000F23D0204604F00EFD0B
:1053C0002068406900F04000402816D120684069FC
:1053D00020F0400021684861606B50B11748616B54
:1053E0000865606BFDF755FD10B1606B016D884776
:1053F0000CE02046FFF779FF08E02046FFF775FF35
:1054000004E02046FFF771FF0020E06388E7FFE734
:1054100005F0800030B106F0800018B1204604F09D
:105420004FFF7DE705F0400030B106F0400018B1B5
:10543000204604F0E3FC73E700BF71E7E19C00083D
:1054400010B504460CB9012010BDA06900B100E000
:1054500000BF94F8390028B9002084F838002046AD
:1054600000F028F8242084F839002068C06820F46F
:1054700000502168C860204604F02EFD20680069B5
:1054800020F49040216808612068406920F02A00DB
:10549000216848612068C06840F400502168C860F5
:1054A0000020E063202084F8390084F83A000020CE
:1054B000CAE7000010B586B00446142101A8FAF727
:1054C000BDFFFC492068884257D100BF00200090F2
:1054D000F948006840F40020F74908600846006871
:1054E00000F40020009000BF00BF00BF002000902B
:1054F000F1481038006840F00100EF4910390860A9
:105500000846006800F00100009000BF00BF0320C3
:1055100001900220029001200390032004900820B3
:10552000059001A9E548FDF7BFFEE548E54908609B
:10553000400548600021E3488160C1604FF480610C
:1055400001610021416181614FF48071C1610021DD
:1055500001624162FDF7D4FD08B1FBF714FD00BF05
:10556000D8486063846300BF002205213420FEF721
:1055700067F83420FEF754F83EE2D34920688842A9
:105580005AD100BF00200090CB48006840F0804016
:10559000C94908600846006800F08040009000BFDC
:1055A00000BF00BF00200090C3481038006840F0E2
:1055B0001000C149103908600846006800F010006A
:1055C000009000BF00BF4FF4C07001900220029015
:1055D00001200390032004900820059001A9BB48F6
:1055E000FDF762FEB6481830B94908604FF02060F8
:1055F00048600021B6488160C1604FF4806101615C
:10560000002141618161C1614FF48031016200215B
:105610004162FDF775FD08B1FBF7B5FC00BFAC4872
:105620006063846300BF002206215220FEF708F861
:105630005220FDF7F5FFDFE1A6492068884258D1E6
:1056400000BF002000909C48006840F000409A494C
:1056500008600846006800F00040009000BF00BFEE
:1056600000BF0020009094481038006840F01000FF
:105670009149103908600846006800F01000009059
:1056800000BF00BF03200190022002900120039080
:10569000032004900820059001A98C48FDF704FE22
:1056A000874860308C4908600005486000218A48BE
:1056B0008160C1604FF480610161002141618161BD
:1056C000C1614FF44031016200214162FDF718FDD4
:1056D00008B1FBF758FC00BF7F486063846300BFDC
:1056E000002206215320FDF7ABFF5320FDF798FF62
:1056F00082E17A49206888425BD100BF0020009097
:105700006D48001D006840F010006B49091D0860DD
:105710000846006800F01000009000BF00BF00BF06
:105720000020009064481038006840F00200624990
:10573000103908600846006800F00200009000BFC1
:1057400000BFC0200190022002900020039003209F
:1057500004900720059001A96148FDF7A5FD614867
:10576000614908604FF00060486000215E48816038
:10577000C1604FF4806101610021416181614FF49A
:105780008071C1614902016200214162FDF7B8FCEC
:1057900008B1FBF7F8FB00BF53486063846300BFA8
:1057A000002206212520FDF74BFF2520FDF738FFBD
:1057B00022E14E49206888427BD100BF0020009042
:1057C0003D48006840F480203B4908600846006876
:1057D00000F48020009000BF00BF00BF00200090B8
:1057E00035481038006840F0080033491039086027
:1057F0000846006800F00800009000BF00BF4FF4AA
:105800004070019002200290002003900320049039
:105810000720059001A93648FDF746FD28481838AD
:10582000344908604FF000604860002131488160D1
:10583000C1604FF480610161002141618161C161FA
:105840004FF48031016200214162FDF759FC08B13B
:10585000FBF799FB00BF27486063846300BF1848CB
:105860003030254908604005486040212248816069
:105870000021C1604FF480610161002141618161BB
:10588000C1614FF48031016200214162FDF738FCB3
:1058900008B1FBF778FB00BF17482063846300BFA3
:1058A000002206212720FDF7CBFE2720FDF7B8FEBA
:1058B000A2E023E0004C00404038024000000240DB
:1058C00040600240A81F0020007800400010024005
:1058D00008200020007C00406820002000100140CB
:1058E0000004024040640240C820002000480040FC
:1058F000000C024028210020882100203F49206818
:10590000884279D100BF002000903D48006840F0F7
:1059100020003B4908600846006800F02000009025
:1059200000BF00BF00BF0020009035481438006859
:1059300040F040003249143908600846006800F021
:105940004000009000BF00BF4FF48440019002204F
:10595000029000200390032004900820059001A9E4
:105960002848FDF7A1FC28482849086080054860C0
:10597000002126488160C1604FF4806101610021EF
:1059800041618161C1614FF4803101620021416256
:10599000FDF7B6FB08B1FBF7F6FA00BF1B486063E2
:1059A000846300BF18489030194908604FF02060A8
:1059B00048604021164881600021C1604FF4806139
:1059C0000161002141618161C1614FF48031016257
:1059D00000214162FDF794FB08B1FBF7D4FA00BF48
:1059E0000B482063846300BF002205214720FDF798
:1059F00027FE4720FDF714FE06B010BD001401403D
:105A0000443802400018024028640240E821002087
:105A10004822002077B581B00446154694F83A0034
:105A2000202850D1029800B115B9012004B070BDF2
:105A300000BF94F83800012801D10220F6E70120C8
:105A400084F8380000BF0298A062A5850020E063BA
:105A5000222084F83A001D48616BC8631C48616BC2
:105A600008641C48616BC8640020616B086502AE65
:105A700032682368191D2B46606BFDF7B7FB00BF2A
:105A80000020009020680068009020684068009026
:105A900000BF00BF00BF002084F8380000BF2068AE
:105AA000C06840F480702168C8602068406940F098
:105AB0000100216848612068406940F04000216889
:105AC00048610020B2E70220B0E70000459D0008D1
:105AD0008B9D0008F59C0008704770472DE9F8433E
