:020000040800F2
:10000000707D00208102000861670008C558000863
:10001000E5640008FD0B0008959100080000000051
:10002000000000000000000000000000C101000806
:10003000570F0008000000001D020008817D000825
:100040009B0200089B0200089B0200089B0200081C
:100050009B0200089B0200089B0200089B0200080C
:100060009B0200089B0200089B0200089B020008FC
:10007000590C0008690C0008790C0008890C00086C
:100080009B020008990C00089B0200089B020008D4
:10009000010C00089B0200089B0200089B0200085C
:1000A0009B0200089B0200089B0200089B020008BC
:1000B000CD7E00089B0200089B0200089B020008FE
:1000C0009B0200089B0200089B0200089B0200089C
:1000D0009B020008599000089B0200086D900008E0
:1000E0009B0200089B0200089B0200089B0200087C
:1000F0009B0200089B0200089B0200089B0200086C
:100100009B020008497100089B0200089B0200083E
:10011000418A00089B0200089B0200089B0200081D
:100120009B020008A90C0008B90C0008C90C0008C3
:100130009B0200089B0200089B0200089B0200082B
:100140009B0200089B0200089B0200089B0200081B
:100150009B020008D90C0008E90C000881900008F7
:100160009B0200089B0200089B0200089B020008FB
:100170009B0200089B0200089B0200080000000090
:100180009B0200089B020008558A0008658A000847
:100190009B0200089B0200089B0200089B020008CB
:1001A00000000000000000009B020008DFF80CD0F7
:1001B00000F082FC00480047F3D60008707D002064
:1001C0002C4B19680868B0E8F04F80F30988BFF33A
:1001D0006F8F4FF0000080F311887047000000001F
:1001E00008480068006880F308884FF0000080F33A
:1001F000148862B661B6BFF34F8FBFF36F8F00DF15
:1002000000BF00BF08ED00E0DFF80C00016841F41A
:1002100070010160704700BF88ED00E0EFF30980D6
:10022000BFF36F8F134B1A681EF0100F08BF20ED3D
:10023000108A20E9F04F106009B44FF0500080F3AD
:100240001188BFF34F8FBFF36F8F0FF093F84FF00C
:10025000000080F3118809BC19680868B0E8F04F05
:100260001EF0100F08BFB0EC108A80F30988BFF3AE
:100270006F8F704788010020EFF305807047000002
:100280000648804706480047FEE7FEE7FEE7FEE730
:10029000FEE7FEE7FEE7FEE7FEE7FEE7697E000811
:1002A000AD01000801804280436070472DE9F04FA6
:1002B0000288D0F80480B0F802904888D1F804E0B1
:1002C00083B04FF0000A1746824207BF098889456C
:1002D0006FF0020003B018BFBDE8F08F4FEA990B32
:1002E00002EB42000290C9F3400001900EEB8A013C
:1002F000BBF1000F2FD0029801EB820C01EB8004C0
:10030000434601EBC205CDF800C0584653F8046BD4
:100310000E6053F8046BCCF8006053F8086B2E6045
:1003200053F8046C266001EB02110CEB021C05EB88
:10033000021504EB0214401EE8D1009808EB0B18DC
:1003400000EB820000EB820000EB8201ABF10100C8
:10035000504301EB001119F0030C19D0A8F104036C
:10036000A1EB82011CF0010F04D001EB820153F8D4
:10037000040F0860019848B15C6841F8224001EB25
:10038000C20153F8084F0C60401EF5D108EB8C08F1
:100390000AF101001FFA80FA781E07043F0CA5D16C
:1003A00003B00020BDE8F08F2DE9F05F0546002086
:1003B00092469B4688460646814640241BE02846D6
:1003C00041464746224600F058FA53465A46C01A5C
:1003D000914110D311461846224600F03FFA2D1ADB
:1003E00067EB01084F4622460120002100F036FA53
:1003F00017EB00094E41201EA4F10104DFDC484642
:1004000031462A464346BDE8F09F40EA01039B0778
:1004100003D009E008C9121F08C0042AFAD203E079
:1004200011F8013B00F8013B521EF9D27047D2B2DD
:1004300001E000F8012B491EFBD270470022F6E7CD
:1004400010B513460A4604461946FFF7F0FF20464A
:1004500010BD2DE9FE4F804681EA0300C00F0C4617
:10046000009021F0004123F00045B8EB0200A941C3
:1004700005D24046214690461C460B46024623F0D4
:100480000040104347D0270DC7F30A00C3F30A51B9
:100490000290401A019040286BDAC3F3130040F435
:1004A000801B0098924620B10023D2EB030A63EB35
:1004B0000B0B01985946C0F14002504600F0CEF9AE
:1004C00006460D4650465946019A00F0E6F910EBF3
:1004D00008006141002487EA115284EAE7731A4355
:1004E00040D0009A62B3019A012A4FEA075215DC04
:1004F000001B61EB02014FF0004202EA0752CDE916
:100500000042001C41F5801132462B4600F01DFAD6
:1005100003B0BDE8F08F40462146F9E7001B61EBD0
:100520000201001C41F5801300185B412018A2F560
:10053000001747EB030140EAD570B6196D4111E091
:100540006D084FEA360645EAC0754FEA0752001BB0
:1005500061EB0201001C41F5801149084FEA3000AF
:100560000019514132462B4603B0BDE8F04F00F070
:10057000DDB90098012240000023D0EB020263EBBA
:10058000E073009821464FEAE074B8EB000061EB9D
:100590000401E9E783F000435BE781F0004158E79D
:1005A0002DE9FE4F81EA030404F0004421F00041EC
:1005B00000944FF0000B23F0004350EA01045ED09A
:1005C00052EA03045BD0C3F30A54C1F30A552C4426
:1005D000A4F2F3340194A0FB0254C1F3130141F4DB
:1005E0008011C3F3130343F4801301FB024400FBA7
:1005F000034E840A970A44EA815447EA8357A4FBCE
:10060000076802958D0A05FB07854FEA932C04FBCA
:100610000C542705029D4FEA065847EA1637B5EBFA
:1006200008056EEB070C870E920E47EA811742EA27
:100630008312A7FB0201B6EB0B0164EB00042B0D48
:1006400043EA0C335E1844EB1C50DA465146E7FB94
:100650000201C5F313044FEA0B3343EA14534FEA84
:100660000432019C43EA0603A4F10C040294009CAA
:10067000CDE900B400F069F903B0BDE8F08F0020C7
:100680000146F9E72DE9F04D81EA030404F0004B3F
:1006900021F0004514464FF0000A23F0004150EAD3
:1006A000050220D054EA01021DD0C5F30A570246C4
:1006B000C5F31303C1F31300C1F30A5640F48015C8
:1006C00043F48013A7EB0608101BD64608F2FD384A
:1006D00073EB050002D308F1010801E092185B41B9
:1006E000B8F1000F03DA00200146BDE8F08D0020CC
:1006F0004FF48011064684460EE0171B73EB050786
:1007000005D3121B63EB050306434CEA010C4908B1
:100710004FEA300092185B4150EA0107EDD152EAEE
:10072000030012D082EA040083EA0501084305D0E1
:10073000101BAB4106D20122002306E000224FF03D
:10074000004302E06FF0010253101AEB06004CEB7D
:10075000085110EB0A0041EB0B01BDE8F04D00F031
:10076000E5B80EB5C10F80EAE0700844CA07002161
:1007700040F233438DE80E000A460B4600F0E5F8E0
:1007800003B000BD0EB540F2334102910021CDE926
:1007900000110A460B4600F0D8F803B000BD00F087
:1007A000004230F000400AD0C10D01F56071C0F385
:1007B000160042EA0151C208400711437047002069
:1007C0000146704730B5041E71F1000404DB4FF0A0
:1007D0000044404264EB0101141E73F1000405DB88
:1007E0001C464FF00043524263EB04038B4208BFA8
:1007F000824230BD30B5041E71F1000404DB4FF0BD
:100800000044404264EB0101141E73F1000405DB57
:100810001C464FF00043524263EB0403994208BF69
:10082000904230BD01F0004330B421F0004150EA65
:10083000010206D00A0DA2F56072C1F31301002A6D
:1008400002DC30BC00207047440F44EAC104C10000
:10085000E01830BC00EBC25000F031B8202A04DBB5
:10086000203A00FA02F1002070479140C2F12003C3
:1008700020FA03F3194390407047202A04DB203A02
:1008800021FA02F00021704721FA02F3D040C2F1B0
:1008900020029140084319467047202A06DBCB17F7
:1008A000203A41FA02F043EAE07306E041FA02F32B
:1008B000D040C2F1200291400843194670470029F8
:1008C000A8BF7047401C490008BF20F001007047D6
:1008D00010B4B0FA80FC00FA0CF050EA010404BF36
:1008E00010BC704749B1CCF1200421FA04F411FA8C
:1008F0000CF118BF012121430843A3EB0C01CB1DD0
:100900004FEA00614FEA102042BF002010BC704740
:1009100000EBC35010440029A4BF10BC7047401C1A
:10092000490008BF20F0010010BC704710B5141E2C
:1009300073F1000408DA401C41F1000192185B4198
:100940001A4301D120F0010010BD2DE9F04D92466F
:100950009B4611B1B1FA81F202E0B0FA80F2203286
:100960009046FFF77BFF04460F4640EA0A0041EA43
:100970000B0153465A46084313D0114653EA01006F
:1009800019D0C8F140025046FFF777FF05460E46E2
:10099000504659464246FFF761FF084305D0012003
:1009A00004E020463946BDE8F08D0020054346EAC4
:1009B000E0762C4337430A986305E40AA0EB08006D
:1009C0000022FD0A44EA47540A3002D500200146BD
:1009D000E9E7010510196941DDE908450019694198
:1009E000BDE8F04DA2E770B521F0004303430CD001
:1009F000C1F30A550024D5EB040564EB0403D617B4
:100A0000AD1AB34102DB0020014670BD201841EB56
:100A1000025170BD2DE9F04D00231A461B1A8A4180
:100A200003DB00200146BDE8F08DC1F30A52C1F39B
:100A3000130141F480154FF0000BD10702D10018CB
:100A40006D41521E0027044640F2FF11384601EB6B
:100A5000620A3E468046024600204FF48011FFF7AE
:100A60000CFFC2197141BB1846EB0100B4EB030C3B
:100A700075EB000C04D3E41A65EB000517460E462F
:100A8000241908F101006D4180463428E3DDF9198D
:100A900046EB0600091BA84103D24FF0FF32134674
:100AA00001E0002213461BEB070046EB0A51BDE8AC
:100AB000F04DFFF73BBF0000064C074D06E0E06835
:100AC00040F0010394E8070098471034AC42F6D395
:100AD000FFF770FBFCBC03081CBD030870B58C1845
:100AE00010F8015B15F0070301D110F8013B2A1142
:100AF00006D110F8012B03E010F8016B01F8016B2F
:100B00005B1EF9D12B0705D40023521E0DD401F82A
:100B1000013BFAE710F8013BCB1A921C03E013F8F3
:100B2000015B01F8015B521EF9D5A142D8D3002028
:100B300070BD0000092015E00C49095C412908DB63
:100B40000A49095C3739A0F10902094B43F8221020
:100B500007E00649095C2939A0F10902044B43F872
:100B60002210401C0C28E7DD70470000F60C002026
:100B70004408002070B505460C4600260DB1022C35
:100B800000D870BDA11E06480288284601F09CF8D6
:100B90000646A01E2E54310A601E295400BFF0E7FD
:100BA0005800002070B505460C4600260DB1022CF9
:100BB00000D870BD611EFF22284601F09FF806464E
:100BC000601E2E5400BFF4E77047000010B54FF0D0
:100BD000FF320121024800680DF06EF810BD0000E0
:100BE0007001002010B54FF0FF320221024800686A
:100BF0000DF062F810BD00007001002000BFFEE79C
:100C000010B5024802F023F810BD00004C1200207D
:100C100070B58AB006460024002505940020069091
:100C2000012007900020009001900290039004950D
:100C3000012008900E2009906946064801F0B6FE92
:100C4000044802F060FB0221024801F0EFFD0AB007
:100C500070BD00004C12002010B5024802F0DCFB11
:100C600010BD0000401A002010B5024802F0D4FB6D
:100C700010BD0000C018002010B5024802F0CCFBE7
:100C800010BD00002019002010B5024802F0C4FB7E
:100C900010BD0000A01A002010B5024802F0BCFBF5
:100CA00010BD00008019002010B5024802F0B4FB0E
:100CB00010BD0000001B002010B5024802F0ACFB84
:100CC00010BD0000E019002010B5024802F0A4FB9E
:100CD00010BD0000C815002010B5024802F09CFBB2
:100CE00010BD00006815002010B5024802F094FB0A
:100CF00010BD0000601B002038B504464148006864
:100D0000406940F040003F490968486119203D4A68
:100D100000901268111D3B4A3B4B506BA3F1190226
:100D200002F027FB37480068C06840F010003549E2
:100D30000968C86035480068406940F040003349A0
:100D400009684861314A1268111D304A8223506B8C
:100D50002F4A02F0F7FC2D480068C06840F01000F0
:100D60002A490968C8602B480068406940F0400083
:100D7000284909684861274A1268111D254A152328
:100D8000506B254A02F0DEFC22480068C06840F043
:100D9000100020490968C86020480068406940F098
:100DA00040001E49096848614F201C4A00901268A3
:100DB000111D1A4A1A4B506BA3F14F0202F0D9FAD7
:100DC00016480068C06840F0100014490968C860FF
:100DD00014480068406940F04000124909684861C1
:100DE000104A1268111D0F4A1323506B0E4A02F06D
:100DF000A9FC0C480068C06840F010000949096867
:100E0000C86038BD00180020DD0C0020401800200C
:100E1000090D0020801800202C120020C01700208F
:100E2000A70B002040170020F60C00200146087890
:100E300010381823B0FBF3F20848805CC865032A19
:100E400005D908686FF30900001D886503E008688C
:100E50006FF309008865886D70470000600F010816
:100E6000014600208A6A8B69CBB932B1012A0DD0C4
:100E7000022A03D0032A10D10EE000BFCB6A03F090
:100E80008073B3F1807F00D1012007E0CB6AB3F11A
:100E9000C07F00D1012001E000E000BF34E08B6999
:100EA000B3F5005F1AD132B1012A07D0022A03D06C
:100EB000032A11D10AE000BF01200EE0CB6A03F043
:100EC0008073B3F1807F00D1012006E0CB6AB3F1DB
:100ED000C07F00D1012000E000BF15E032B1012A3F
:100EE00005D0022A04D0032A0CD103E000BF00BFC2
:100EF000012008E0CB6A03F08073B3F1807F00D15A
:100F0000012000E000BF00BF704710B504686360B7
:100F10008468402C04D10468A2600468E16003E0A6
:100F20000468A1600468E26010BD30B504682468FC
:100F300024F4802405682C60046863608468402C75
:100F400004D10468A2600468E16003E00468A16061
:100F50000468E26030BD70477047000010B50022A1
:100F600001B909E0012901D10A0205E0022901D1F4
:100F70000A0201E04FF440720B2800D9001D0E4B0D
:100F80001B6823F440730C4C236023461B681343F7
:100F9000236023461B6823F0F803236023461B6865
:100FA000022444EAC0042343034C236023461B6805
:100FB00043F48033236010BD103C02401C4800689D
:100FC00000F40070B0B11A48006820F400701849AD
:100FD000086000BF0846006840F4006008600846EA
:100FE000006820F40060086000BF0846006840F414
:100FF000007008600E48006800F48060B0B10C48D2
:10100000006820F480600A49086000BF0846006854
:1010100040F4805008600846006820F48050086062
:1010200000BF0846006840F4806008607047000018
:10103000003C0240134A126822F44072114B1A60BD
:10104000032906D11A461268DB131A430D4B1A60A6
:101050000EE0012906D10B4A126842F00402094B46
:101060001A6005E0074A126842F40042054B1A6014
:10107000044A12684FF4803343EA00231A43014BB9
:101080001A607047103C0240074A126822F440720E
:10109000054B1A601A4612681A601A46126842F026
:1010A00001021A6001707047103C024010B50949F6
:1010B000096821F44071074C21602146096841F418
:1010C000407121602146096841F001012160026000
:1010D000436010BD103C0240084A126822F440727E
:1010E000064B1A601A46126842F480721A601A4659
:1010F000126842F001021A6001807047103C024001
:10110000084A126822F44072064B1A601A461268A6
:1011100042F400721A601A46126842F001021A6024
:1011200001607047103C02402A48006800F010003F
:1011300040B12948C06940F010002749C86110201B
:10114000244908602348006800F0200040B122488C
:10115000C06940F008002049C86120201D4908608E
:101160001C48006800F0400040B11B48C06940F0D6
:1011700004001949C86140201649086015480068F4
:1011800000F0800040B11448C06940F002001249EC
:10119000C86180200F4908600E48006800F4807024
:1011A00048B10D48C06940F001000B49C8614FF4D7
:1011B0008070084908600748006800F0020040B1EC
:1011C0000548C06940F020000349C8610220014978
:1011D000086070470C3C0240C01B002070B50446FC
:1011E000002500201449C86102F0F6FC054609E01C
:1011F000601C38B124B102F0EFFC401BA04201D9C1
:10120000032070BD0D48006800F480300028EFD145
:101210000A48006800F0010010B101200749086089
:101220000648006800F4F97018B1FFF77DFF01204F
:10123000E7E70020E5E70000C01B00200C3C02406F
:1012400008B50A4800210091016800919DED000A4F
:10125000B8EE400A064981ED000A001D9DED000A26
:10126000B8EE400A034981ED000A08BD00001E08DF
:101270006001002064010020FEB500250027002445
:10128000002002900190009002F06EFB224800F0D6
:1012900015FC0546204800F0F9FC1F490844461E8D
:1012A000304600F00BFC401B471C00201B49086027
:1012B0000220086108468560C76002A902F0A6FA0C
:1012C000154C17480668324600232146022002F0DA
:1012D000FFFA241D134806683246002321460220E7
:1012E00002F0F6FA02F0EAFA241F002000902068CB
:1012F00001900B4800680199884202D00098401C78
:101300000090241D074800680199884202D0009887
:10131000401C009000BFFEBD00001E0864030020BA
:10132000600100206401002000B587B0FE4800780D
:1013300001287CD1FDA00690022106220C230698EC
:10134000CDE902320491019040F295104FF4707390
:101350004FF407721946009001200AF011F9F4A029
:101360000690022106220C230698CDE90232049150
:10137000019040F2951040F22943024640F2573165
:10138000009001200AF0FCF8EAA00690072105224F
:101390000C230698CDE902320491019040F27A3094
:1013A00040F20E634FF44D7240F2825100900120E2
:1013B0000AF0C0F9E0A00690E04800780821072272
:1013C0000A23CDE90132CDE90310012000904FF44A
:1013D0004D7240F28251069B0EF0FAF9D8A00690A9
:1013E000072105220C230698CDE9023204910190D1
:1013F00040F2BD1040F28C5340F277124FF4A061DE
:10140000009001200AF096F9CEA00690CB484078D3
:10141000082107220A23CDE90132CDE9031001207A
:10142000009040F277124FF4A061069B00E0DEE1ED
:101430000EF0CEF90DF024FAC3A006900721052284
:101440000C230698CDE902320491019040F2771006
:1014500040F28C5340F231124FF4A0610090012011
:101460000AF068F9B9A00690B94800880821072257
:101470000A23CDE90132CDE90310012000901E229C
:101480004FF4A061069B0EF0A3F9AFA006900621D1
:1014900007220A230698CDE902320491019040F216
:1014A000591040F2622340F24F1219460090012079
:1014B0000AF066F8A7A00690012107220A230698E1
:1014C000CDE902320491019040F2591040F25643A6
:1014D00040F24F121946009001200AF051F80DF029
:1014E000CFF900F01BFD9CA00690072105220C23DC
:1014F0000698CDE902320491019040F27B204FF42E
:10150000E16340F2352240F27C61009001200AF054
:1015100011F992A006900820914909680723CDE9A6
:101520000230CDE904100A200121CDE9001040F27B
:10153000352240F27C610120069B0DF0A9FF89A0B5
:101540000690072105220C230698CDE9023204916A
:10155000019040F235204FF4E16340F2EF1240F287
:101560007C61009001200AF0E5F87FA00690082039
:101570007E4909680723CDE90230CDE904100A202D
:101580000121CDE9001040F2EF1240F27C61012010
:10159000069B0DF07DFF73A00690072105220C230A
:1015A0000698CDE902320491019040F2EF104FF419
:1015B000E16340F2A9124FF4BE61009001200AF0ED
:1015C000B9F869A006900E20694909680822072326
:1015D000CDE90232CDE904100A200121CDE9001045
:1015E00040F2A9124FF4BE610120069B0DF050FF9E
:1015F00060A00690072105220C230698CDE902324F
:101600000491019040F27F3040F28B1340F2393266
:10161000FF21009001200AF08DF857A0069057484E
:10162000006800EE100ABCEEC00A08200721022262
:10163000CDE9022104908DED050A0A200121CDE9B2
:10164000001040F23932FF210120069B0DF0E2FF2D
:1016500048A00690072105220C230698CDE9023206
:101660000491019040F27F3040F2172340F239326A
:1016700040F28B11009001200AF05CF83EA0069029
:101680003E48406800EE100ABCEEC00A0820072160
:101690000222CDE9022104908DED050A0A200121E4
:1016A000CDE9001040F2393240F28B110120069B47
:1016B0000DF0B0FF0DF0E4F831A0069007210522EF
:1016C0000C230698CDE902320491019040F23930A2
:1016D00040F28B1340F2F322FF21009001200AF028
:1016E00029F828A00690284890ED050ABCEEC00A0B
:1016F000082007210222CDE9022104908DED050A80
:101700000A200121CDE9001040F2F322FF2101203F
:10171000069B0DF07FFF1DA00690072105220C23DC
:101720000698CDE9023233E0950000206170760022
:1017300061706800657062006570760000010020CD
:101740006174620061747600627262006272760097
:1017500009010020627362006173620061737600A8
:101760008C0000206673620066737600880000209B
:10177000900000207863620078637600630E00209A
:101780007061620070617600540800207961620027
:101790000491019040F2393040F2172340F2F322D5
:1017A00040F28B110090012009F0C4FFB7A0069011
:1017B000B74890ED050ABCEEC00A082007210222B6
:1017C000CDE9022104908DED050A0A200121CDE921
:1017D000001040F2F32240F28B110120069B0DF025
:1017E00019FF0DF04DF80020AA49087040E1AFF252
:1017F000B8000690A8480078082107220A23CDE9FE
:101800000132CDE90310012000904FF44D7240F2F7
:1018100082510220069B0DF0DBFFAFF2D80006904C
:101820009D484078082107220A23CDE90132CDE9FD
:1018300003100120009040F277124FF4A0610220C3
:10184000069B0DF0C5FFAFF2FC00069093480088A0
:10185000082107220A23CDE90132CDE90310012036
:1018600000901E224FF4A0610220069B0DF0B0FFF5
:10187000AFF22C1006908A4800684FF4FA71B1FB61
:10188000F0F086490988484300F2622006210722C9
:101890000A2305900698CDE902320491019040F2A6
:1018A0005910009040F24F1240F262210120059B36
:1018B00009F066FEAFF264100690794800684FF4B4
:1018C000FA71B1FBF0F07549098840F2564200FB0D
:1018D0001120012107220A2305900698CDE9023242
:1018E0000491019040F2591040F2564340F24F12D9
:1018F00000900120059909F043FE0CF0C1FF00F0B3
:101900000DFBAFF2A810069008206649096807236E
:10191000CDE90230CDE904100A200121CDE9001003
:1019200040F2352240F27C610220069B0DF0B0FDB2
:10193000AFF2CC10069008205B4909680723CDE977
:101940000230CDE904100A200121CDE9001040F257
:10195000EF1240F27C610220069B0DF099FDAFF280
:10196000F81006900E205149096808220723CDE996
:101970000232CDE904100A200121CDE9001040F225
:10198000A9124FF4BE610220069B0DF081FDAFF25B
:10199000182006904648006800EE100ABCEEC00A07
:1019A000082007210222CDE9022104908DED050ACD
:1019B0000A200121CDE9001040F23932FF21022036
:1019C000069B0DF027FEAFF2502006903848406885
:1019D00000EE100ABCEEC00A082007210222CDE961
:1019E000022104908DED050A0A200121CDE90010A5
:1019F00040F2393240F28B110220069B0DF00AFEB4
:101A0000AFF2802006902B4890ED050ABCEEC00A8C
:101A1000082007210222CDE9022104908DED050A5C
:101A20000A200121CDE9001040F2F322FF2102201B
:101A3000069B0DF0EFFD15A00690154890ED050AE8
:101A4000BCEEC00A082007210222CDE90221049041
:101A50008DED050A0A200121CDE9001040F2F322A4
:101A600040F28B110220069B0DF0D4FD0CF008FF14
:101A70001148408810B11048808828B903F024FF2D
:101A800010B9002007B000BD0120FBE779617600A6
:101A9000C808002095000020000100200901002056
:101AA000500000208C0000208800002090000020C2
:101AB000630E002054080020E300002001460020AF
:101AC0005C4A914203D2B1F1006F00D3B0E05A4AB0
:101AD000914204D2574A914201D30120A8E0574ACB
:101AE000914204D2544A914201D30220A0E0544AC8
:101AF000914204D2514A914201D3032098E0514AC5
:101B0000914204D24E4A914201D3042090E04E4AC1
:101B1000914204D24B4A914201D3052088E04B4ABE
:101B2000914204D2484A914201D3062080E0484ABB
:101B3000914204D2454A914201D3072078E0454AB8
:101B4000914204D2424A914201D3082070E0424AB5
:101B5000914204D23F4A914201D3092068E03F4AB2
:101B6000914204D23C4A914201D30A2060E0B1F193
:101B7000016F04D2394A914201D30B2058E0384A10
:101B8000914204D2B1F1016F01D30C2050E0354AEB
:101B9000914204D2324A914201D30D2048E0324AA8
:101BA000914204D22F4A914201D30E2040E02F4AA5
:101BB000914204D22C4A914201D30F2038E02C4AA2
:101BC000914204D2294A914201D3102030E0294A9F
:101BD000914204D2264A914201D3112028E0264A9C
:101BE000914204D2234A914201D3122020E0234A99
:101BF000914204D2204A914201D3132018E0204A96
:101C0000914204D21D4A914201D3142010E01D4A92
:101C1000914204D21A4A914201D3152008E01A4A8F
:101C2000914204D2174A914201D3162000E01720B6
:101C300070470000004000080080000800C0000855
:101C40000000010800000208000004080000060867
:101C50000000080800000A0800000C0800000E0838
:101C6000004010080080100800C010080000110893
:101C700000001208000014080000160800001808F0
:101C800000001A0800001C0800001E080146002081
:101C900069B101290BD0022909D0032907D00C29E9
:101CA00005D00D2903D00E2901D00F2902D14FF400
:101CB000804008E0042901D0102902D14FF480307F
:101CC00001E04FF40030704730B5034613B94FF6CA
:101CD000FF7030BD09E013F8014B82EA0400C0B286
:101CE000054D35F8100080EA2222081EA1F10101FD
:101CF000F1D11046EDE70000420D010830B5034672
:101D000005E013F8010B80EA02040448025D081E96
:101D1000A1F10101F5D1104630BD0000410C0108D0
:101D2000024631B1012915D0022924D0032944D11A
:101D300032E09388A3F58060002801DB034600E0D1
:101D400043420A2B01DA002070479088A0F580609A
:101D500000B2F9E7D388A3F58060002801DB0346D1
:101D600000E043420A2B01DA0020EDE7D088A0F51D
:101D7000806000B2E8E71389A3F58060002801DBEA
:101D8000034600E043420A2B01DA0020DCE7108919
:101D9000A0F5806000B2D7E75389A3F580600028E2
:101DA00001DB034600E043420A2B01DA0020CBE7C7
:101DB0005089A0F5806000B2C6E74FF48060C3E7A9
:101DC000024610296FD2DFE801F0081018202830F1
:101DD00038404850586068717981907D00F001006A
:101DE00008B1012070470020FCE7907D00F0020060
:101DF00008B10120F6E70020F4E7907D00F0040030
:101E000008B10120EEE70020ECE7907D00F008002B
:101E100008B10120E6E70020E4E7907D00F0100023
:101E200008B10120DEE70020DCE7907D00F0200013
:101E300008B10120D6E70020D4E7907D00F04000F3
:101E400008B10120CEE70020CCE7907D00F08000B3
:101E500008B10120C6E70020C4E7D08A00F48070F2
:101E600008B10120BEE70020BCE7D08A00F4007072
:101E700008B10120B6E70020B4E7D08A00F4806002
:101E800008B10120AEE70020ACE7D08A00F4006082
:101E900008B10120A6E70020A4E7D08A00F4805012
:101EA00010B101209EE719E000209BE7D08A00F4E2
:101EB000005008B1012095E7002093E7D08A00F494
:101EC000804008B101208DE700208BE7D08A00F424
:101ED000004008B1012085E7002083E7002081E76A
:101EE0000246032902D0042904D101E0107D704785
:101EF000507DFCE70020FAE7024621B1012905D018
:101F0000022909D105E0B2F90E007047B2F91000BC
:101F1000FBE7B2F91200F8E70020F6E7204890F856
:101F20002C0001281BD0022804D0032809D0042843
:101F30001CD10DE01BA01F4908601FA021490860AB
:101F40001BE021A01B49086023A01E49086014E083
:101F500024A01849086020A01A4908600DE011A0CB
:101F6000144908601CA01749086006E021A0114927
:101F7000086019A01349086000BF00BF084890F826
:101F8000280028B1012807D11EA02149086004E0DB
:101F900020A01F49086000E000BF00BF012070477B
:101FA000BC0A002061747461636B3A2046726565F7
:101FB00020200000900000206175746F3A204F4E81
:101FC000000000008C00002061747461636B3A4F64
:101FD0007574706F737400006175746F3A4F464684
:101FE0000000000061747461636B3A2042617365A4
:101FF0002020000061747461636B3A204E756C6C34
:1020000020200000467269633A204F4E0000000015
:1020100088000020467269633A4F4646000000007F
:10202000024611B1012904D101E0507B7047107BB9
:10203000FCE70320FAE7000010B52DED0A8BC64837
:102040000068012816D1C54890ED010AC44880ED0A
:10205000060A00F065FB032802D10020BE49086093
:102060000020BD490860BF4804F07CFBBC4804F078
:1020700079FB64E1B94890F82B0001287ED1032157
:10208000B948FFF74DFE0446FEF76BFB41EC1C0B15
:102090009FEDB60B53EC102BFEF782FA41EC1B0BB5
:1020A0009FEDB40B53EC102BFEF7ECFA41EC190B3F
:1020B000AC4890ED060A10EE101A0846FEF76FFBCA
:1020C00041EC1A0B53EC192BFEF7C3F941EC180B3A
:1020D000FEF7A8FBA34988610021A348FFF720FE73
:1020E0000446FEF73EFB41EC1C0B9FEDA40B53ECAA
:1020F000102BFEF755FA41EC1B0B9FED9E0B53EC9A
:10210000102BFEF7BFFA41EC190B954890ED060A2B
:1021100010EE101A0846FEF742FB41EC1A0B53EC86
:10212000192BFEF796F941EC180BFEF77BFB8C4957
:1021300088618C4890ED060AF2EE0E0AB4EEE00AD1
:10214000F1EE10FA04DDB2EE0E0A80ED060A0DE0A3
:10215000844890ED060ADFED8B0AB4EEE00AF1EE5A
:1021600010FA03D29FED870A80ED060A7C4890EDB5
:10217000060ADFED850AB4EEE00A00E01CE0F1EEAD
:1021800010FA04DD9FED800A80ED060A0DE0744828
:1021900090ED060ADFED7D0AB4EEE00AF1EE10FAEA
:1021A00003D29FED7A0A80ED060A6E4804F0DAFA4F
:1021B0006B4804F0D7FAC2E0684890F82B00022878
:1021C00071D1664890F82C00012822D10021664880
:1021D000FFF792FE00EE100AF8EEC00A604890ED9C
:1021E000060A9FED6B1A01EE200A80ED060A012116
:1021F0005D48FFF781FE00EE100AF8EEC00A59486C
:1022000090ED060A9FED621A01EE600A80ED060A63
:102210003AE0524890F82C00022816D15D4890ED23
:10222000000A5D48D0ED000A30EE200A4C4880EDEF
:10223000060A5A4890ED000A5948D0ED000A30EEDF
:10224000200A484880ED060A1EE0444890F82C0019
:1022500003280AD19FED530A414880ED060ABBEEE0
:10226000030A404880ED060A0EE03C4890F82C0036
:10227000042809D19FED4C0A394880ED060A9FEDEC
:10228000490A384880ED060A364890ED060AF2EE13
:102290000E0AB4EEE00AF1EE10FA05DDB2EE0E0A17
:1022A00080ED060A0EE031E02E4890ED060ADFEDE3
:1022B000350AB4EEE00AF1EE10FA03D29FED310ACE
:1022C00080ED060A264890ED060ADFED2F0AB4EEEF
:1022D000E00AF1EE10FA04DD9FED2B0A80ED060A0C
:1022E0000DE01F4890ED060ADFED280AB4EEE00A83
:1022F000F1EE10FA03D29FED250A80ED060A194887
:1023000004F030FA164804F02DFA18E0134890F85B
:102310002B00A0B9114890ED000A124880ED060A82
:102320009FED200A80ED100A0C4890ED010A0C4840
:1023300080ED060A00200B49C8840949C884094871
:10234000C08C404200B20749C8840549054804F0E2
:102350002DF9BDEC0A8B10BD74000020BC0A0020D2
:10236000C808002054080020940C00209A999999DC
:102370009999C93F0000000000A0844000000000BF
:102380000000D03F000070C200001B4300001BC3D0
:102390000AD7233C600100201401002064010020C2
:1023A00010010020000000000000104200207149D0
:1023B00008704870012088700020087100216D4865
:1023C000C18040F207206B4988609FED6B0A084688
:1023D00080ED030A9FED680A80ED040A9FED660A0E
:1023E00080ED050A9FED640A80ED060A0020C8838F
:1023F00008844884C88447F2481008859FED5F0A26
:10240000084680ED0B0A9FED5E0A80ED0C0A9FEDF9
:102410005A0A80ED0D0A9FED580A80ED120A9FEDD1
:10242000590A80ED110A9FED540A80ED0E0A9FEDC6
:10243000520A80ED0F0A9FED500A80ED100A9FEDC1
:102440004E0A80ED130AB3EE0B0A80ED140A9FEDDD
:102450004A0A80ED150AB6EE000A80ED160A9FEDD5
:10246000460A80ED1B0A9FED480A80ED1A0A9FED8F
:10247000420A80ED170A9FED400A80ED180A9FED91
:102480003E0A80ED190A9FED3C0A80ED1C0A0020EF
:102490003E490870487001208870002008710021B2
:1024A0003A48C1804FF40270384988609FED320A83
:1024B000084680ED030A9FED300A80ED040A9FED87
:1024C0002E0A80ED050A9FED2C0A80ED060A0020F9
:1024D000C88308844884C88444F6206008859FED3A
:1024E0002C0A084680ED0B0A9FED2A0A80ED0C0AA3
:1024F0009FED210A80ED0D0A9FED1F0A80ED120A63
:102500009FED200A80ED110A9FED1B0A80ED0E0A57
:102510009FED190A80ED0F0A9FED170A80ED100A52
:102520009FED150A80ED130AB3EE0E0A80ED140A32
:102530009FED110A80ED150A9FED170A80ED160A2E
:102540009FED0D0A80ED1B0A9FED0F0A80ED1A0A20
:102550009FED090A80ED170A9FED070A80ED180A22
:102560009FED050A80ED190A9FED030A80ED1C0A14
:1025700070470000540800200000000000000243E3
:102580009A99993E00409C4500401C46C80800208E
:1025900000000C43CDCCCC3ECDCCCC3D9FED351ACC
:1025A000B0EE410A9FED331AF0EE410A3248C08B7B
:1025B00041F66221081A01EE100AB8EEC11ADFEDE9
:1025C0002F1A21EE211A2E4880ED001A2D4890ED89
:1025D0000B1AB0EE410A90ED0A1A294880ED021A52
:1025E0002948C08B41F6905188420FDA2648C08BAB
:1025F000A0F5596001EE100AB8EEC11ADFED1F1AFE
:1026000021EE211A1E4880ED011A0FE01E48C08BF2
:10261000A0F534508F3801EE100AB8EEC11ADFED84
:10262000171A21EE211A164880ED011A154890ED6F
:102630000C1AF0EE410A90ED051ADFED141A21EEA6
:10264000211A0F4880ED031A0E4890ED061ADFEDAF
:10265000101A21EE211A0A4880ED041A094890ED5B
:10266000041ADFED0A1A21EE211A054880ED051A39
:102670007047000000000000540800205839343D25
:10268000BC0A002050020020C808002033336542F5
:10269000333365C21C480068012812D11B4890EDF5
:1026A000000A1B4880ED060A9FED1A0A80ED100A09
:1026B000164890ED010A184880ED060A00201249DC
:1026C0000860124890ED000A114880ED050A0F4895
:1026D00090ED030A0E4880ED030A0C4890ED010AC4
:1026E0000D4880ED050A094890ED040A0A4880ED7E
:1026F000030A0A4800680549886108484068C861BB
:10270000064880680862704770000020BC0A0020FC
:102710005408002000000000C8080020630E0020BC
:102720003E4890ED050AF2EE020AB4EEE00AF1EE40
:1027300010FA17D23A480078A0B9384890ED060A46
:10274000F2EE040AB4EEE00AF1EE10FA07D290EDD0
:10275000060ADFED340A30EE200A80ED060A304822
:10276000007870472E48007810B901202C49087075
:102770002A4890ED050AFBEE0D0AB4EEE00AF1EEF0
:1027800010FA18DD26480078012814D1234890ED6E
:10279000060AFBEE0E0AB4EEE00AF1EE10FA07DDCF
:1027A00090ED060ADFED200A30EE600A80ED060AA1
:1027B0001B480078D5E71A480078012802D102208A
:1027C00017490870154890ED050AFFEE000AB4EEAF
:1027D000E00AF1EE10FA16D211480078022812D160
:1027E0000E4890ED060AB5EEC00AF1EE10FA07D2D7
:1027F00090ED060ADFED0C0A30EE200A80ED060AA5
:1028000007480078ADE706480078022802D1032087
:102810000349087002480078A3E70000540800202C
:10282000780000200AD7233D0AD7A33D10B5024601
:1028300092F82030012B01D0022B06D1106840699C
:10284000084314686061002010BD506A40F4802085
:1028500050620120F8E7F0B504460D461E4694F894
:10286000207020688368A86800B900E000BF012FCD
:1028700001D0022F7CD103F0806030B903F00060FA
:1028800018B903F08050002873D0C3F30161022906
:1028900005D9606A40F4000060620120F0BD0120AB
:1028A00088403060A86860B9B5F800C0E86840EAC0
:1028B0004C5C206800F5C07000EB0110C0F800C04F
:1028C0000FE0D5E901C040EACC00D5F80CC040EAE1
:1028D0000C00D4F800C00CF5C07C0CEB011CCCF84B
:1028E0000000D5F810C0206800F5C07000EB0110A2
:1028F000C0F804C0287D01280ED1206800F5C07002
:1029000000EB0110406840F4807C206800F5C07046
:1029100000EB0110C0F804C0D079000692F806C0A0
:1029200040EA0C4092F805C040EA0C2C10794CEAC1
:10293000000C206800F5C07000EB0110C0F80CC05E
:10294000D078000692F802C040EA0C4092F801C02C
:1029500040EA0C2092F800C040EA0C00D4F800C015
:102960000CF5C07C0CEB011CCCF80800206801E0E1
:1029700016E00FE000F5C07000EB0110006840F0B9
:10298000010C206800F5C07000EB0110C0F800C019
:10299000002083E7606A40F40010606201207DE758
:1029A000606A40F480206062012077E7F0B5044659
:1029B0000A46216894F82050012D01D0022D7ED1C5
:1029C000424901F50071086840F00100086008689C
:1029D00020F47C5008600868566A40EA06200860C7
:1029E000107D00F01F06012000FA06F3C869984325
:1029F000C861A1F50071D069C8B9D1F80C0298433B
:102A0000C1F80C02908880B2968940EA064601F52A
:102A10001070576940F83760108880B2168940EA14
:102A2000064601F51070576900EBC7004660D06993
:102A3000012819D1D1F80C021843C1F80C02908872
:102A400080B2168840EA064601F51070576940F8D2
:102A50003760908980B2168940EA064601F5107009
:102A6000576900EBC7004660906928B9D1F80402A5
:102A70009843C1F8040204E0D1F804021843C1F8F5
:102A80000402106928B9D1F814029843C1F814025D
:102A900004E0D1F814021843C1F81402106A0128A6
:102AA00004D1D1F81C021843C1F81C02D1F800026D
:102AB00020F00100C1F800020020F0BDFFE7606ACD
:102AC00040F4802060620120F7E7000000640040CD
:102AD000704770B5044694F82050012D01D0022DA6
:102AE0007CD151B92068C06800F0030080B9606AE9
:102AF00040F400106062012070BD2068006900F0A1
:102B0000030028B9606A40F4001060620120F3E716
:102B1000206800F5D87000EB0110006800F0040098
:102B20009060906840B9206800F5D87000EB011003
:102B30000068400D106007E0206800F5D87000EBD9
:102B400001100068C0085060206800F5D87000EBE4
:102B50000110006800F002004008D060206800F515
:102B6000D87000EB0110406800F00F001061206881
:102B700000F5D87000EB0110406800F47F40000AB7
:102B80009061206800F5D87000EB01104068000CDF
:102B90005061206800F5D87000EB01108068187053
:102BA000206800F5D87000EB0110806800F47F40C9
:102BB000000A5870206800F5D87000EB011080689A
:102BC00000F47F00000C9870206800F5D87000EBCE
:102BD00001108068000ED870206800E031E000F538
:102BE000D87000EB0110C0681871206800F5D8702B
:102BF00000EB0110C06800F47F40000A58712068A3
:102C000000F5D87000EB0110C06800F47F00000CE4
:102C10009871206800F5D87000EB0110C068000EB4
:102C2000D87131B92068C06840F020002668F06093
:102C300005E02068006940F020002668306100202F
:102C40005AE7606A40F480206062012054E72DE971
:102C5000F05F04460025206846692068D0F804909B
:102C6000206887682068D0F80CA02068D0F810B0E1
:102C70002068D0F8188006F00100002855D007F031
:102C80000100C0B101202168886007F0020018B17E
:102C9000204600F068FB0EE007F0040010B145F498
:102CA000006508E007F0080010B145F4805502E027
:102CB000204600F057FB07F48070C8B14FF48070D5
:102CC0002168886007F4007018B1204600F04DFBC1
:102CD0000EE007F4806010B145F4005508E007F4F9
:102CE000006010B145F4804502E0204600F03CFB56
:102CF00007F48030C8B14FF480302168886007F451
:102D0000003018B1204600F032FB0EE007F48020BE
:102D100010B145F4004508E007F4002010B145F477
:102D2000803502E0204600F021FB06F0080038B1B3
:102D30000AF0100020B145F4007510202168C86029
:102D400006F0040040B10AF0080028B1082021680C
:102D5000C860204600F0A8F906F0020038B12068EB
:102D6000C06800F0030010B1204600F09FF906F0A3
:102D7000400038B10BF0100020B145F48065102000
:102D80002168086106F0200040B10BF0080028B16E
:102D9000082021680861204600F0B2FA06F0100011
:102DA00038B12068006900F0030010B1204600F03F
:102DB000A8FA06F4003040B109F0100028B1102044
:102DC00021684860204600F09DFA06F4803040B14A
:102DD00009F0080028B1082021684860204600F06A
:102DE000C7FA06F4004088B309F0040078B306F48B
:102DF000807020B108F0010008B145F0010506F42B
:102E0000007020B108F0020008B145F0020506F498
:102E1000806020B108F0040008B145F0040506F414
:102E20000060A0B108F0700088B108F07000402880
:102E300017D006DC10280BD020280CD0302819D150
:102E40000CE0502810D0602814D110E01DE019E0EB
:102E500045F008050FE045F010050CE045F02005B1
:102E600009E045F0400506E045F0800503E045F443
:102E7000807500E000BF00BF2068806920F070000E
:102E8000216888610420216848602DB1606A284368
:102E900060622046FFF71CFEBDE8F09F70B5044657
:102EA0000CB9012070BD94F8200010B9204600F044
:102EB000AFF82068006820F002002168086000F088
:102EC0008BFE05460DE000F087FE401B0A2808D95E
:102ED000606A40F400306062052084F82000012020
:102EE000E0E72068406800F002000028EBD120688D
:102EF000006840F001002168086000F06DFE0546A2
:102F00000DE000F069FE401B0A2808D9606A40F411
:102F100000306062052084F820000120C2E72068AC
:102F2000406800F001000028EBD0207E012806D187
:102F30002068006840F080002168086005E0206893
:102F4000006820F0800021680860607E012806D1BA
:102F50002068006840F040002168086005E02068B3
:102F6000006820F0400021680860A07E012806D19A
:102F70002068006840F020002168086005E02068B3
:102F8000006820F0200021680860E07E012806D15A
:102F90002068006820F010002168086005E02068C3
:102FA000006840F0100021680860207F012806D1E9
:102FB0002068006840F008002168086005E020688B
:102FC000006820F0080021680860607F012806D1B1
:102FD0002068006840F004002168086005E020686F
:102FE000006820F0040021680860D4E90201084369
:102FF00021690843616908436168491E08432168E3
:10300000C86100206062012084F82000002049E7A8
:1030100010B586B00446142101A8FDF70FFA1F4928
:103020002068884237D100BF002000901C4800680B
:1030300040F000701A4908600846006800F000700F
:10304000009000BF00BF00BF00200090144810385F
:10305000006840F00800124910390860084600680E
:1030600000F00800009000BF00BF03200190022084
:10307000029000200390032004900920059001A9EC
:10308000084800F08BFC00220621142000F052FEBC
:10309000142000F03FFE06B010BD000000640040A8
:1030A00040380240000C02407047000030B52DED62
:1030B0000A8B83B0044601AB874A00212046FFF704
:1030C00008FD85480068A0F2012008287DD2DFE8CD
:1030D00000F02C04FDA5FDFD7D548048C08B7F4988
:1030E00088839DF805009DF8041040EA01207B4983
:1030F000C8839DF807009DF8061040EA012000B241
:10310000764908849DF809009DF8081040EA0120DE
:1031100000B2724988840846C088401C81B26F485A
:10312000C18001206D490871D1E06D48C08B6C49A8
:1031300088839DF805009DF8041040EA0120684945
:10314000C8839DF807009DF8061040EA012000B2F0
:10315000634908849DF809009DF8081040EA0120A1
:1031600000B25F4988840846C088401C81B25C4830
:10317000C18001205A490871A9E05A48C08B5949B9
:1031800088839DF805009DF8041040EA0120554908
:10319000C8839DF807009DF8061040EA012000B2A0
:1031A000504908849DF809009DF8081040EA012064
:1031B00000B24C4988840846C088401C81B2494806
:1031C000C18001204749087181E07FE04648C08BFB
:1031D000454988839DF805009DF8041040EA0120C8
:1031E0004149C8839DF807009DF8061040EA012078
:1031F00000B23D4908849DF809009DF8081040EA96
:10320000012000B2384988840846C088401C81B239
:103210003548C18001203449087158E03348C08BDB
:10322000324988839DF805009DF8041040EA01208A
:103230002E49C8839DF807009DF8061040EA01203A
:1032400000B22A4908849DF809009DF8081040EA58
:10325000012000B2254988840846C088401C81B2FC
:103260002248C1800120214908710B46DA8B998BD5
:10327000B3F9200007F0DAFE0546FDF772FA41ECDB
:103280001C0B9FED1B0B53EC102BFDF789F941EC48
:103290001B0B9FED190B53EC102BFDF7F3F941ECD1
:1032A000190B124890ED050A10EE101A0846FDF7AA
:1032B00076FA41EC1A0B53EC192BFDF7CAF841ECE6
:1032C000180BFDF7AFFA0949486100E000BF00BFE5
:1032D00003B0BDEC0A8B30BDC80200203C090020C1
:1032E000B0090020C808002054080020240A00204B
:1032F00000000000008076400000000070FF1141D7
:1033000070477047704770B5044694F82000012854
:1033100022D1022084F820002068006820F00100FB
:103320002168086000F058FC05460DE000F054FCF0
:10333000401B0A2808D9606A40F40030606205200A
:1033400084F82000012070BD2068406800F0010072
:103350000028EBD16062F6E7606A40F4002060620A
:103360000120F0E77047704770477047704770471B
:1033700070472DE9F04704460E4617461D46DDF816
:1033800020804FF00009A068802804D140006065CB
:103390004FF0010929E000BF94F83400012802D160
:1033A0000220BDE8F087012084F8340000BF94F8C3
:1033B0003500012817D1022084F835002068006804
:1033C00040F48020216808602068056143463A4641
:1033D00031462046FDF799FD2068006840F0010065
:1033E0002168086001E04FF002094846D9E701462C
:1033F00091F83500022803D08020486501207047ED
:10340000052081F835000868006820F001000A688E
:1034100010600020F3E70000F8B50446002000909B
:103420008C4800684FF41651B0FBF1F7A56D2E687B
:1034300094F85C1008208840304098B120680068FB
:1034400000F0040070B12068006820F004002168DA
:10345000086094F85C1008208840A860606D40F017
:103460000100606594F85C1001208840304068B12C
:103470002068406900F0800040B194F85C100120A1
:103480008840A860606D40F00200606594F85C10B0
:1034900004208840304068B12068006800F00200D5
:1034A00040B194F85C1004208840A860606D40F042
:1034B0000400606594F85C1010208840304078B3B8
:1034C0002068006800F0080050B394F85C101020E9
:1034D0008840A8602068006800F4802080B12068DF
:1034E000006800F4002028B9206CC8B12046216C87
:1034F000884715E0A06C98B12046A16C88470FE082
:103500002068006800F4807028B92068006820F006
:10351000080021680860206C10B12046216C8847A3
:1035200094F85C10202088403040002865D0206846
:10353000006800F0100000285FD094F85C10202094
:103540008840A86094F83500052828D120680068D4
:1035500020F01600216808602068406920F0800093
:1035600021684861206C08B9A06C28B12068006807
:1035700020F008002168086094F85C103F20884023
:10358000A86000BF002084F8340000BF012084F848
:103590003500206D10B12046216D8847F8BD2068A8
:1035A000006800F4802080B12068006800F40020EA
:1035B00028B9606C10B12046616C88471DE0E06B53
:1035C000D8B12046E16B884717E02068006800F416
:1035D000807068B92068006820F0100021680860D9
:1035E00000BF002084F8340000BF012084F83500BB
:1035F000E06B10B12046E16B8847606D38B3606DB9
:1036000000F00100F0B1052084F835002068006862
:1036100020F001002168086000BF0098401C009065
:10362000B84200D905E02068006800F001000028D9
:10363000F3D100BF00BF002084F8340000BF012098
:1036400084F83500E06C10B12046E16C884700BF7B
:10365000A4E70000840100202DE9F0410446002584
:1036600000F0BAFA074614B90120BDE8F081606A9B
:1036700000B100BF00BF002084F8340000BF02206A
:1036800084F835002068006820F001002168086097
:103690000AE000F0A1FAC01B052805D920206065CA
:1036A000032084F83500E0E72068006800F001009E
:1036B0000028EED12068056821480540D4E90101C1
:1036C0000843E16808432169084361690843A16927
:1036D0000843E1690843216A08430543606A0428F6
:1036E00003D1D4E90B010843054320680560206835
:1036F000456925F00705606A0543606A04280DD115
:10370000A06A0543E06A48B12046FDF7A9FB28B14D
:1037100040206065012084F83500A6E720684561F7
:103720002046FDF783FB064694F85C103F20884056
:10373000B06000206065012084F83500002094E727
:103740003F8010F02DE9F04704460D4616461F460F
:103750004FF00008D4F8589000BF94F834000128C6
:1037600002D10220BDE8F087012084F8340000BFB8
:1037700094F8350001282BD1022084F83500002070
:1037800060653B46324629462046FDF7CEFB94F85D
:103790005C103F208840C9F808002068006840F0AD
:1037A0001600216808602068406940F080002168A8
:1037B0004861206C28B12068006840F0080021684A
:1037C00008602068006840F001002168086006E099
:1037D00000BF002084F8340000BF4FF002084046CC
:1037E000C0E7000070B5044600F0F6F9064625462D
:1037F000681C10B104480078054400BF00F0ECF9E3
:10380000801BA842FAD370BD800100202DE9F04151
:1038100004460E460127002500BF2648007E0128E9
:1038200002D10220BDE8F08101202249087600BFC4
:103830004CF25030FDF7D2FC0746002F32D1401E2B
:1038400030602068012810D1207C6168FDF7F2FB10
:103850004CF25030FDF7C2FC07461748006848F2AA
:1038600004018843144908601AE0A56812E0217C2D
:103870002846FDF773FB4CF25030FDF7AFFC0746CE
:103880000D48006820F0FA000B4908600FB1356060
:1038900005E06D1CD4E902100844A842E7D800BF37
:1038A000FDF78CFB00BF00200249087600BF3846B8
:1038B000B8E70000C01B0020103C0240034800682D
:1038C00040F000400149086000207047103C024071
:1038D0002DE9F04106460F4614461D464FF00108FB
:1038E00000BF1F48007E012802D10220BDE8F08100
:1038F00001201B49087600BF4CF25030FDF76EFCEA
:103900008046B8F1000F23D126B9E1B23846FDF761
:10391000BBFB12E0012E04D1A1B23846FDF7DCFB5F
:103920000BE0022E04D121463846FDF7E9FB04E006
:1039300022462B463846FDF7B9FB4CF25030FDF7D6
:103940004DFC80460748006820F0010005490860EA
:1039500000BF00200249087600BF4046C6E70000CD
:10396000C01B0020103C024000200949096801F0FA
:10397000004159B10749064A0C3A116006491160E5
:103980000349096801F0004101B1012070470000BE
:10399000103C024023016745AB89EFCDF8B50246E4
:1039A0000B460025002400200021E6E0012606FA4F
:1039B00001F51E6806EA0504AC4273D15E68022E6A
:1039C00002D05E68122E13D1CF0802F1200656F8FD
:1039D00027004E07F70E0F26BE40B0434F07FF0EDD
:1039E0001E69BE403043CF0802F1200646F827008A
:1039F00010684F000326BE40B0431E7906F0030650
:103A00004F00BE40304310605E68012E08D05E68F3
:103A1000022E05D05E68112E02D05E68122E13D1E0
:103A200090684F000326BE40B0434F00DE68BE40A2
:103A300030439060506801268E40B0431E79C6F333
:103A400000168E4030435060D0684F000326BE40C1
:103A5000B0434F009E68BE403043D0605E6806F0C1
:103A60008056B6F1805FA8D100BF00260096454E73
:103A7000366846F48046434F3E603E46366806F45C
:103A80008046009600BF00BF3F4E8F0856F82700C3
:103A90008E07370F0F26BE40B0433C4EB24202D1D4
:103AA00000262EE068E03A4EB24201D1012628E01D
:103AB000384EB24201D1022623E0374EB24201D144
:103AC00003261EE0354EB24201D1042619E0344EE1
:103AD000B24201D1052614E0324EB24201D106268F
:103AE0000FE0314EB24201D107260AE02F4EB2421A
:103AF00001D1082605E02E4EB24201D1092600E090
:103B00000A268F073F0FBE4030431F4E8F0846F8EE
:103B10002700284E3068A0435E6806F48036B6F56C
:103B2000803F00D12043234E3060361D3068A043D3
:103B30005E6806F40036B6F5003F00D120431D4E06
:103B4000361D3060361D3068A0435E6806F480166E
:103B5000B6F5801F00D12043164E08363060361D62
:103B60003068A0435E6806F40016B6F5001F00D169
:103B70002043104E0C363060491C1029FFF416AF5C
:103B8000F8BD0000443802400838014000000240FF
:103B90000004024000080240000C024000100240F5
:103BA0000014024000180240001C024000200240A5
:103BB00000240240003C014042690A408A4202D18E
:103BC0000A04826100E0816170470AB1816101E00D
:103BD0000B048361704700000148006870470000D3
:103BE0007801002003480068034909780844014926
:103BF00008607047780100208001002010B50D4852
:103C0000006840F400700B4908600846006840F402
:103C1000806008600846006840F4807008600320F7
:103C200000F0C6F8002000F007F800F049F8002086
:103C300010BD0000003C024070B588B0044600256D
:103C40000026002221461C2000F074F81C2000F001
:103C500061F800BF002001901648006840F00100A4
:103C6000144908600846006800F00100019000BF98
:103C700000BF02A903A800F06FF900F095F9450014
:103C80000D48B5FBF0F0461E4FF080400B49086030
:103C900040F2E7310948C16046600021016181605E
:103CA00000F047FF20B9054800F05EFF08B070BD86
:103CB0000120FBE74038024040420F008016002000
:103CC00008B500BF002000901148006840F4804013
:103CD0000F4908600846006800F48040009000BF6B
:103CE00000BF00BF00200090081F006840F0805017
:103CF000091F08600846006800F08050009000BF6F
:103D000000BF00220F21901E00F014F808BD000033
:103D10004438024001460846002809DB00F01F0332
:103D200001229A4043099B0003F1E023C3F80021DC
:103D300000BF70472DE9F05F80460D46164600270C
:103D400005F0F0FA074639462A46334601F00700E7
:103D5000C0F1070ABAF1040F02D94FF0040A01E0DA
:103D6000C0F1070AD14600F1040ABAF1070F02D2E6
:103D70004FF0000A01E0A0F1030AD4464FF0010A17
:103D80000AFA09FAAAF1010A0AEA020A0AFA0CFA7C
:103D90004FF0010B0BFA0CFBABF1010B0BEA030B21
:103DA0004AEA0B042146404605F0C4FABDE8F09FFC
:103DB00000BF00F00702064B19684FF6FF031940D9
:103DC000044B0B4343EA0221014B196000BF7047CB
:103DD0000CED00E00000FA0570B504460D460CB984
:103DE000012070BD5848006800F00F00A84209D2B9
:103DF00055490D700846006800F00F00A84201D038
:103E00000120EEE7207800F0020002281DD1207882
:103E100000F00400042805D14C48006840F4E0504C
:103E20004A490860207800F00800082805D1474872
:103E3000006840F46040454908604448006820F04C
:103E4000F000A168084341490860207800F00100B3
:103E5000A8B36068012807D13C4808380068C0F35F
:103E60004040B8B90120BCE76068022802D0606811
:103E7000032807D1354808380068C0F3406048B9C6
:103E80000120AEE7314808380068C0F3400008B9A7
:103E90000120A6E72D48006820F003006168084370
:103EA0002A490860FFF798FE064609E0FFF794FEEE
:103EB000801B41F28831884202D9032091E707E054
:103EC0002248006800F00C006168B0EB810FEDD172
:103ED0001D48006800F00F00A84209D91A490D706A
:103EE0000846006800F00F00A84201D0012078E7E2
:103EF000207800F00400042807D11448006820F45A
:103F0000E050E168084311490860207800F008009B
:103F1000082808D10D48006820F46040216940EA73
:103F2000C1000A49086000F05FF808490968C1F358
:103F30000311074A515CC840064908600020FFF79A
:103F40007BFE00204DE70000003C024008380240A4
:103F5000680F0108840100200F2202600D4A1268D8
:103F600002F0030242600B4A126802F0F002826023
:103F7000084A126802F4E052C260064A126802F46B
:103F80006042D2080261044A126802F00F020A601D
:103F90007047000008380240003C024001480068B9
:103FA000704700008401002000B5FFF7F7FF0449C7
:103FB0000968C1F38221034A515CC84000BD00007A
:103FC00008380240780F010800B5FFF7E7FF044901
:103FD0000968C1F34231034A515CC84000BD00008A
:103FE00008380240780F01082DE9F0470024002529
:103FF0000026A1462548006800F00C0020B10428E6
:1040000005D008283AD105E0DFF8849039E0DFF8E0
:10401000849036E01D48001F006800F03F041B48F4
:10402000001F006800F4800078B11A481749091F82
:104030000968C1F38811A0FB0170014622460023E4
:104040003846FCF7B1F905460EE011480F49091F43
:104050000968C1F38811A0FB0170014622460023C4
:104060003846FCF7A1F905460848001F0068C0F370
:104070000140401C4600B5FBF6F902E0DFF8109065
:1040800000BF00BF4846BDE8F08700000838024086
:104090000024F400001BB700F8B504460CB9012059
:1040A000F8BD207800F00100002874D0F9480068BD
:1040B00000F00C0004280DD0F648006800F00C0059
:1040C000082813D1F348001F006800F48000B0F501
:1040D000800F0BD1EF4808380068C0F3404000283B
:1040E00059D06068002856D10120D9E700BF606828
:1040F000B0F5803F08D1E7480838006840F48030C8
:10410000E449083908601EE06068B0F5A02F0DD1C1
:10411000E0480838006840F48020DE49083908602B
:104120000846006840F4803008600CE0D948083840
:10413000006820F48030D7490839086008460068D4
:1041400020F48020086000BF606890B1FFF744FD54
:10415000054606E0FFF740FD401B642801D9032017
:104160009EE7CC4808380068C0F340400028F1D0F2
:1041700011E0FFF731FD054606E0FFF72DFD401B7E
:10418000642801D903208BE7C24808380068C0F3CF
:1041900040400028F1D1207800F0020002285FD1D1
:1041A000BC48006800F00C0058B1BA48006800F044
:1041B0000C0008281CD1B748001F006800F48000DC
:1041C000B0B9B44808380068C0F3400020B1E068D6
:1041D000012801D0012063E7AE480838006820F0CC
:1041E000F800216940EAC100AA490839086037E0AF
:1041F000E06800B30120A8490860FFF7EDFC054620
:1042000006E0FFF7E9FC401B022801D9032047E73D
:10421000A04808380068C0F340000028F1D09D484D
:104220000838006820F0F800216940EAC100994987
:104230000839086014E0002097490860FFF7CCFCBB
:10424000054606E0FFF7C8FC401B022801D9032001
:1042500026E7904808380068C0F340000028F1D1F4
:10426000207800F0080008282CD16069A8B101204E
:104270008A490860FFF7B0FC054606E0FFF7ACFC92
:10428000401B022801D903200AE782486C300068ED
:10429000C0F340000028F1D014E000207F490860FE
:1042A000FFF79AFC054606E0FFF796FC401B022844
:1042B00001D90320F4E677486C300068C0F3400071
:1042C0000028F1D1207800F00400042870D10026E5
:1042D00070483830006800F0805090B900BF00206E
:1042E00000906C483830006840F08050694938319F
:1042F00008600846006800F08050009000BF00BFD2
:1043000001266748006800F48070B0B9644800680E
:1043100040F4807062490860FFF75EFC054606E0E5
:10432000FFF75AFC401B022801D90320B8E65C487D
:10433000006800F480700028F2D000BFA068012857
:1043400008D154486830006840F001005149683194
:1043500008601DE0A06805280DD14E48683000684F
:1043600040F004004B49683108600846006840F09E
:10437000010008600CE047486830006820F0010048
:104380004449683108600846006820F0040008606D
:1043900000BFA068A8B1FFF71FFC054609E0FFF7C2
:1043A0001BFC401B41F28831884202D9032077E68A
:1043B00026E0384868300068C0F340000028EED09E
:1043C00013E0FFF709FC054608E0FFF705FC401B7A
:1043D00041F28831884201D9032061E62D486830D6
:1043E0000068C0F340000028EFD1012E07D1294812
:1043F0003830006820F0805026493831086000BF0E
:10440000A069B8B32348006800F00C0008285ED00B
:10441000A069022846D100201F490866FFF7DCFB8F
:10442000054606E0FFF7D8FB401B022801D9032010
:1044300036E6184808380068C0F340600028F1D11B
:10444000D4E907010843616A40EA81110122A06AA8
:10445000C2EB500041EA00412C20005D41EA0060BF
:104460000C49091F086001200B490866FFF7B4FBDF
:10447000054607E02DE0FFF7AFFB401B022801D9FE
:1044800003200DE6034808380068C0F340600028A8
:10449000F1D01EE00838024000004742800E47423B
:1044A0000070004000200C490866FFF795FB0546A8
:1044B00006E0FFF791FB401B022801D90320EFE53E
:1044C00006480068C0F340600028F2D101E00120F6
:1044D000E6E50020E4E50000000047420038024025
:1044E00010B50446FCF770FB10BD7047F8B50446E4
:1044F00004260025002000906946204602F0B7FF00
:10450000054615B1A06B2843A0630098C0F343266D
:104510003046F8BD70B5044600252068406BC0F3F6
:104520000020002863D04FF48070216888632068E1
:10453000C06B40F23A3188432168C863206B00F0B9
:10454000080048B3206B00F0020018B9206B00F09F
:10455000200050B1206802F03BFE05462DB1A06B53
:104560002843A0632046FFF7C0FF40F2FF502168B8
:104570008863012084F83400206B00F0010018B932
:10458000206B00F0020018B1204600F0C3F8BCE038
:10459000204600F0C4F8B8E0206B00F0800000284E
:1045A000F5D0206B00F0200050B1206802F010FE22
:1045B00005462DB1A06B2843A0632046FFF795FF69
:1045C000206B00F001000028E1D1206B00F0020018
:1045D0000028DCD12068C06A20F008002168C86289
:1045E000012084F83400204600F099F88DE020681E
:1045F000406BC0F3803038B14FF48040216888634D
:10460000204602F04DFF80E02068406BC0F3C030D0
:1046100038B14FF4004021688863204602F014FF4F
:1046200073E02068406B40F23A21084008B1012055
:1046300000E00020002868D02068406BC0F34000F4
:1046400018B1A06B40F00200A0632068406BC0F37B
:10465000C00018B1A06B40F00800A0632068406B58
:10466000C0F3401018B1A06B40F02000A063206898
:10467000406BC0F3001018B1A06B40F01000A063B5
:104680002068406BC0F3402018B1A06B40F00800D8
:10469000A06340F2FF70216888632068C06B40F21D
:1046A0003A3188432168C863206B00F0800010B362
:1046B000206C50B11548216C0865206CFEF797FE00
:1046C00010B1206C02F09AFE1FE0E06B50B1104870
:1046D000E16B0865E06BFEF78AFEB0B1E06B02F0BB
:1046E00067FE12E00020A063012084F83400204619
:1046F000FFF7F6FE09E0206B00F0080028B101206A
:1047000084F834002046FFF7F0FE70BDFD7300080A
:10471000B173000810B50446FCF758FA10BD10B587
:104720000446FCF75FFA10BD10B504460CB9012031
:1047300010BD606A00B900BF0021A16294F8510069
:1047400028B9002084F85000204600F033F80220F9
:1047500084F851002068006820F04000216808605B
:10476000D4E901010843E16808432169084361690C
:104770000843218B01F400710843E1690843216A71
:104780000843A16A0843216808600421A06901EA7E
:104790001040616A0843216848602068C06920F4BD
:1047A00000602168C86100206065012084F8510024
:1047B0000020BDE710B586B00446142101A8FBF720
:1047C0003DFE1B492068884230D100BF0020009088
:1047D0001848006840F480101649086008460068D0
:1047E00000F48010009000BF00BF00BF00200090C8
:1047F00010481438006840F020000E491439086051
:104800000846006800F02000009000BF00BF4FF491
:104810006070019002200290002003900320049019
:104820000520059001A90448FFF7B8F806B010BDAF
:104830000050014044380240001402402DE9FF5F5F
:104840000446884691461D460E9E01200290002097
:10485000019000BF94F85000012803D1022004B059
:10486000BDE8F09F012084F8500000BFFFF7B4F9C5
:10487000074694F851B060680390AA46BBF1010F57
:104880000BD00398B0F5827F04D1A06810B9BBF1BA
:10489000040F02D002200190DBE0B8F1000F03D03A
:1048A000B9F1000F00D015B901200190D1E094F8C2
:1048B0005100042802D0052084F8510000206065D2
:1048C000C4F83890E587A587C4F83080E586A586CA
:1048D000206460642068006800F04000402805D033
:1048E0002068006840F0400021680860E068B0F58A
:1048F000006F4AD1606810B1BAF1010F09D1206B85
:1049000000882168C860206B801C2063E08E401EF8
:10491000E08633E02068806800F00200022810D1B1
:10492000E08E70B1029801280BD1206B00882168BD
:10493000C860206B801C2063E08E401EE086002053
:1049400002902068806800F0010068B1E08F58B1E3
:104950002068C068A16B0880A06B801CA063E08FFA
:10496000401EE08701200290FFF736F9C01BB042DD
:1049700004D3701C10B1032001906AE0E08E00287F
:10498000C8D1E08F0028C5D14AE0606810B1BAF103
:10499000010F09D1206B007821680873206B401C3F
:1049A0002063E08E401EE08634E02068806800F0DE
:1049B0000200022810D1E08E70B1029801280BD1BC
:1049C000206B007821680873206B401C2063E08E08
:1049D000401EE086002002902068806800F0010000
:1049E00068B1E08F58B12068C068A16B0870A06BF7
:1049F000401CA063E08F401EE08701200290FFF77B
:104A0000EBF8C01BB04201D3701C00B916B90320EB
:104A100001901EE0E08E0028C7D1E08F0028C4D1AD
:104A20003A463146204602F04EFD20B10120019069
:104A3000202060650DE0A06850B900BF0020009004
:104A40002068C068009020688068009000BF00BFA8
:104A500000BF012084F8510000BF002084F85000FE
:104A600000BF0198FBE67047704710B5034600226F
:104A700000BF93F83C00012801D1022010BD0120A5
:104A800083F83C0000BF22F0FF00CC6840EA04023B
:104A900022F440708C6840EA040222F480604C6882
:104AA00040EA040222F400600C6840EA040222F4A6
:104AB00080500C6940EA040222F400504C6940EA3C
:104AC000040222F48040CC6940EA0402186842647F
:104AD00000BF002083F83C0000BF00BFCEE710B548
:104AE000024600BF92F83C00012801D1022010BD0F
:104AF000012082F83C0000BF022082F83D001068CF
:104B000043681068846823F070030868034324F046
:104B10008004486804431068436010688460012082
:104B200082F83D0000BF002082F83C0000BF00BFBB
:104B3000DDE710B504460CB9012010BD94F83D0026
:104B400028B9002084F83C00204600F00CF8022030
:104B500084F83D00211D206803F0C2F9012084F88B
:104B60003D000020E9E7704701460868C06840F052
:104B700001000B68D8600868806800F00702062A08
:104B800005D00868006840F001000B68186000203C
:104B90007047704710B5044620680069C0F34000B4
:104BA000D8B12068C068C0F34000B0B16FF0020017
:104BB00021680861012020772068806900F00300E7
:104BC00018B12046FFF7E5FF05E0204600F024F984
:104BD000204600F0F3F90020207720680069C0F338
:104BE0008000D8B12068C068C0F38000B0B16FF019
:104BF000040021680861022020772068806900F4A1
:104C0000407018B12046FFF7C4FF05E0204600F0D1
:104C100003F9204600F0D2F90020207720680069CF
:104C2000C0F3C000D8B12068C068C0F3C000B0B104
:104C30006FF0080021680861042020772068C069AF
:104C400000F0030018B12046FFF7A3FF05E020465F
:104C500000F0E2F8204600F0B1F90020207720684B
:104C60000069C0F30010D8B12068C068C0F300101C
:104C7000B0B16FF01000216808610820207720682B
:104C8000C06900F4407018B12046FFF782FF05E0CC
:104C9000204600F0C1F8204600F090F9002020776F
:104CA0002068006900F0010058B12068C06800F079
:104CB000010030B16FF0010021680861204600F06A
:104CC000ABF920680069C0F3C01058B12068C06813
:104CD000C0F3C01030B16FF0800021680861204639
:104CE000FFF7C1FE20680069C0F3801058B120684A
:104CF000C068C0F3801030B16FF0400021680861D7
:104D0000204600F092F920680069C0F3401058B1C5
:104D10002068C068C0F3401030B16FF020002168F7
:104D200008612046FFF7A0FE10BD000010B586B058
:104D30000446142101A8FBF781FB31492068884211
:104D40003BD100BF002000902E48006840F00100D9
:104D50002C4908600846006800F00100009000BF80
:104D600000BF00BF002000900846006840F010001F
:104D700008600846006800F01000009000BF00BF07
:104D80004FF44070019002200290002003900490A4
:104D90000120059001A91C48FEF700FE4FF4C04019
:104DA00001900220029000200390049001200590C1
:104DB00001A91648FEF7F2FD20E015492068884257
:104DC0001CD100BF002000900E48006840F0020097
:104DD0000C4908600846006800F00200009000BF1F
:104DE00000BF202001900220029000200390049038
:104DF0000220059001A90748FEF7D0FD06B010BDBE
:104E00000000014030380240000002400010024023
:104E10000004004000040240704770B504460D468F
:104E2000164600BF94F83C00012801D1022070BD55
:104E3000012084F83C0000BF022084F83D0036B118
:104E4000042E1BD0082E31D00C2E5ED145E0294611
:104E5000206803F0C3F82068806940F008002168EA
:104E600088612068806920F00400216888612068DA
:104E70008069296908432168886147E029462068DC
:104E800003F0E4F82068806940F4006021688861DC
:104E90002068806920F480602168886120688069CA
:104EA000296940EA0120216888612FE029462068AD
:104EB00003F00AF92068C06940F008002168C86161
:104EC0002068C06920F004002168C8612068C069BA
:104ED000296908432168C86118E02946206803F061
:104EE0002FF92068C06940F400602168C86120681B
:104EF000C06920F480602168C8612068C0692969A0
:104F000040EA01202168C86100E000BF00BF012025
:104F100084F83D0000BF002084F83C0000BF00BFC3
:104F200085E710B504460CB9012010BD94F83D008A
:104F300028B9002084F83C00204600F00DF802203B
:104F400084F83D00211D206802F0CAFF012084F88A
:104F50003D000020E9E7000008B5154A01689142CC
:104F60000FD100BF002100911249096841F00101F1
:104F7000104A11601146096801F00101009100BF5B
:104F800015E00D4A0168914211D100BF0021009146
:104F90000849091F096841F00201064A121F116001
:104FA0001146096801F00201009100BF00BF08BD71
:104FB00000000140443802400004004070470000F7
:104FC00070B504460E4601223146206802F0F4FF17
:104FD0000F492068884203D00E492068884201D1D9
:104FE000012000E0002028B12068406C40F400401F
:104FF000216848642068806800F00705062D05D008
:105000002068006840F0010021680860002070BD41
:10501000000001400004014010B504462068B0F1D2
:10502000804F01D1FEF7DEFD10BD704770470000D4
:105030002DE9F0470446206805682068C6682068A6
:1050400047694FF00008C14605F00F08B8F1000F9E
:105050000AD105F0200038B106F0200020B120462A
:1050600003F088FDBDE8F087B8F1000F6ED007F0BF
:10507000010018B906F49070002867D005F001000F
:1050800030B106F4807018B1E06B40F00100E063CD
:1050900005F0040030B107F0010018B1E06B40F0FA
:1050A0000200E06305F0020030B107F0010018B122
:1050B000E06B40F00400E06305F0080030B107F059
:1050C000010018B1E06B40F00800E063E06B70B3E2
:1050D00005F0200028B106F0200010B1204603F0B2
:1050E00049FD20684069C0F38019E06B00F00800BA
:1050F00010B9B9F1000F23D0204603F011FD20684C
:10510000406900F04000402816D12068406920F036
:10511000400021684861606B50B11748616B0865B9
:10512000606BFEF764F910B1606B016D88470CE0AD
:105130002046FFF77BFF08E02046FFF777FF04E0FB
:105140002046FFF773FF0020E0638BE705F0800047
:1051500030B106F0800018B1204603F013FF81E75C
:1051600005F0400030B106F0400018B1204603F0D1
:10517000E7FC77E700BF75E7798A000810B50446B9
:105180000CB9012010BDA06900B100E000BF94F887
:10519000390028B9002084F83800204600F028F8AB
:1051A000242084F839002068C06820F40050216869
:1051B000C860204603F032FD2068006920F490406A
:1051C000216808612068406920F02A002168486150
:1051D0002068C06840F400502168C8600020E06387
:1051E000202084F8390084F83A000020CAE7000043
:1051F00010B586B00446142101A8FBF71FF9FB493E
:105200002068884254D100BF00200090F848006810
:1052100040F40020F64908600846006800F40020C9
:10522000009000BF00BF00BF00200090F048103881
:10523000006840F00100EE49103908600846006837
:1052400000F00100009000BF00BF03200190022089
:10525000029001200390032004900820059001A9EA
:10526000E448FEF79BFBE448E449086040054860D9
:105270000021E2488160C1604FF48061016100213A
:1052800041618161C16101624162FEF7E5F908B1E6
:10529000FBF762FE00BFD9486063846300BF002251
:1052A00005213420FEF746FD3420FEF733FD3FE2B2
:1052B000D349206888425AD100BF00200090CC48D2
:1052C000006840F08040CA4908600846006800F065
:1052D0008040009000BF00BF00BF00200090C44885
:1052E0001038006840F01000C149103908600846C5
:1052F000006800F01000009000BF00BF4FF4C070C5
:1053000001900220029001200390032004900820C5
:10531000059001A9BB48FEF741FBB7481830BA49D0
:1053200008604FF0206048600021B7488160C1608C
:105330004FF480610161002141618161C1614FF4DD
:105340008031016200214162FEF786F908B1FBF766
:1053500003FE00BFAC486063846300BF00220621E7
:105360005220FEF7E7FC5220FEF7D4FCE0E1A7490B
:105370002068884258D100BF002000909C480068F7
:1053800040F000409A4908600846006800F000407C
:10539000009000BF00BF00BF00200090944810386C
:1053A000006840F010009249103908600846006813
:1053B00000F01000009000BF00BF03200190022009
:1053C000029001200390032004900820059001A979
:1053D0008C48FEF7E3FA884860308D490860000584
:1053E000486000218A488160C1604FF4806101619A
:1053F000002141618161C1614FF4403101620021AE
:105400004162FEF729F908B1FBF7A6FD00BF80480D
:105410006063846300BF002206215320FEF78AFCEC
:105420005320FEF777FC83E17A49206888425BD1FC
:1054300000BF002000906E48001D006840F0100082
:105440006B49091D08600846006800F010000090D4
:1054500000BF00BF00BF0020009065481038006802
:1054600040F002006249103908600846006800F008
:105470000200009000BF00BFC020019002200290F7
:1054800001200390032004900720059001A96248A1
:10549000FEF784FA6148624908604FF00060486096
:1054A00000215F488160C1604FF48061016100218B
:1054B000416181614FF48071C16149020162002143
:1054C0004162FEF7C9F808B1FBF746FD00BF54483A
:1054D0006063846300BF002206212520FEF72AFCBA
:1054E0002520FEF717FC23E14E49206888427BD136
:1054F00000BF002000903E48006840F480203C49F6
:1055000008600846006800F48020009000BF00BFDB
:1055100000BF0020009036481038006840F00800B6
:105520003349103908600846006800F00800009010
:1055300000BF00BF4FF44070019002200290012094
:105540000390032004900720059001A93648FEF738
:1055500025FA29481838354908604FF0006048603E
:10556000002132488160C1604FF4806101610021F7
:1055700041618161C1614FF480310162002141626A
:10558000FEF76AF808B1FBF7E7FC00BF2748606345
:10559000846300BF184830302549086040054860E2
:1055A0004021234881600021C1604FF48061016186
:1055B000002141618161C1614FF4803101620021AC
:1055C0004162FEF749F808B1FBF7C6FC00BF184876
:1055D0002063846300BF002206212720FEF7AAFB78
:1055E0002720FEF797FBA3E024E00000004C0040DA
:1055F000403802400000024040600240C0180020D5
:10560000007800400010024020190020007C00407B
:105610008019002000100140000402404064024054
:10562000E019002000480040000C0240401A002011
:10563000A01A00203F492068884279D100BF00208D
:1056400000903D48006840F020003B490860084653
:10565000006800F02000009000BF00BF00BF0020E5
:10566000009035481438006840F040003249143941
:1056700008600846006800F04000009000BF00BFCE
:105680004FF48440019002200290012003900320F7
:1056900004900820059001A92848FEF77FF92848C2
:1056A0002849086080054860002126488160C16063
:1056B0004FF480610161002141618161C1614FF45A
:1056C0008031016200214162FDF7C6FF08B1FBF79E
:1056D00043FC00BF1B486063846300BF18489030E0
:1056E000194908604FF020604860402116488160E9
:1056F0000021C1604FF4806101610021416181613D
:10570000C1614FF48031016200214162FDF7A4FFC5
:1057100008B1FBF721FC00BF0B482063846300BF86
:10572000002205214720FEF705FB4720FEF7F2FA8D
:1057300006B010BD00140140443802400018024079
:1057400028640240001B0020601B002070472DE9E8
:10575000F84304460D4616461F464FF0000994F8DC
:10576000390020285CD105B116B90120BDE8F883C5
:1057700000BF94F83800012801D10220F6E701208B
:1057800084F8380000BF0020E063212084F839004D
:10579000FEF722FA8146A684E6842BE0E08C401EC8
:1057A000E084A068B0F5805F16D14B4600228021CE
:1057B0002046009703F01AFC08B10320D6E7A8465C
:1057C000B8F80000C0F3080021684860206908B9F3
:1057D000AD1C0FE06D1C0DE04B46002280212046E1
:1057E000009703F003FC08B10320BFE715F8010B95
:1057F00021684860E08C0028D0D14B46002240212F
:105800002046009703F0F2FB08B10320AEE720200A
:1058100084F8390000BF002084F8380000BFA5E7F5
:105820000220A3E7F7B50446154694F8390020286E
:105830003DD1019800B10DB90120FEBD00BF94F823
:105840003800012801D10220F7E7012084F8380050
:1058500000BF01982062A584E5840020E063212038
:1058600084F839001348216BC8631348216B08641E
:105870001248216BC8640020216B086501AE2368C3
:105880001A1D31682B46206BFDF75CFF6FF040005E
:105890002168086000BF002084F8380000BF20683D
:1058A000406940F08000216848610020C5E702207F
:1058B000C3E70000DD8A0008138B00088D8A00080A
:1058C0007047704700BFFEE710B5A5201849087063
:1058D0000020C870A1F80100087101204871032060
:1058E000887179211248C01DFAF7A8FD1148007887
:1058F0001149488003F0E8FC20B1012804D00228B7
:1059000010D108E0002010BD0A48007840F48070F3
:105910000949888008E00748007800F5807006494A
:10592000888001E00020EEE700BF0120EBE70000E7
:10593000E4020020410E0020E30000207CB5044674
:10594000002001900026656B2068C06800F0100000
:1059500000283DD0206800682068406800BF002013
:10596000009020680068009020684068009000BFA8
:1059700000BF2868006820F00100296808602868D6
:105980004068C0F11500C6B212480670152029689B
:1059900048602868006840F0010029680860002E0F
:1059A00016DD0D480078662812D10B48C07B882888
:1059B0000ED101A90948006809F06CFB019838B1C3
:1059C0004FF0805006490860BFF34F8FBFF36F8FD1
:1059D0007CBD00005D0000202C1200201000002083
:1059E00004ED00E02DE9F0410746B648DFF8D8C2E3
:1059F0009CE80E10A0E80E10B2494878C11700EBE1
:105A000011710911A0EB0111CDB2AE4840884CF6DE
:105A1000CC41884229D10A20FDF7E4FEAB4800784A
:105A20000A280CDA4EF6EE60A9490880A9484078A9
:105A3000401CA8494870EE208870C8700FE0A34849
:105A4000007864280BDD4DF6DD50A1490880A1489F
:105A50004078401C9F494870DD208870C87014222F
:105A60009C493846FFF7DEFE29E196484088984970
:105A70000988884203D10120954988701FE1914827
:105A800040884BF6BB31884218D192484078401C80
:105A900090494870904890F82800012801D1C870BA
:105AA00002E000208B49C8708B4890F82C0089498F
:105AB000887014223846FFF7B5FE00E1814840881F
:105AC0004FF6FF7188422BD1834890ED000A05EB19
:105AD0008500824901EB800080ED000A7E4890ED50
